:100000000C94DF150C9407160C9407160C94071625
:100010000C9407160C9407160C9407160C940716EC
:100020000C9407160C9407160C9407160C940B1ED0
:100030000C9407160C9407160C9407160C940716CC
:100040000C94A1290C9407160C941E280C94F827E4
:100050000C9407160C9407160C9407160C940716AC
:100060000C94CC1E0C94071600407A10F35A00A092
:10007000724E18090010A5D4E80000E87648170071
:1000800000E40B54020000CA9A3B000000E1F505B1
:10009000000080969800000040420F000000A086FB
:1000A00001000000102700000000E803000000002D
:1000B0006400000000000A000000000001000000D1
:1000C00000002C76D888DC674F0823DFC1DFAE59EB
:1000D000E1B1B796E5E3E453C63AE651997696E87E
:1000E000E6C28426EB898C9B62ED407C6FFCEFBC02
:1000F0009C9F40F2BAA56FA5F490055A2AF75C932D
:100100006B6CF9676DC11BFCE0E40D47FEF520E662
:10011000B500D0ED902E0300943577050080841E45
:10012000080000204E0A000000C80C333333330FA0
:10013000986E12831141EF8D2114893BE65516CF3D
:10014000FEE6DB18D1844B381BF77C1D901DA4BB49
:10015000E424203284725E228100C9F124ECA1E5FE
:100160003D27000103070F1F3F7F0080C0E0F0F82C
:10017000FCFE00000000003E5B4F5B3E3E6B4F6BA1
:100180003E1C3E7C3E1C183C7E3C181C577D571C78
:100190001C5E7F5E1C00183C1800FFE7C3E7FF00F1
:1001A00018241800FFE7DBE7FF30483A060E26293F
:1001B000792926407F050507407F05253F5A3CE702
:1001C0003C5A7F3E1C1C08081C1C3E7F14227F22C8
:1001D000145F5F005F5F06097F017F006689956A93
:1001E000606060606094A2FFA29408047E0408101E
:1001F000207E201008082A1C08081C2A08081E1047
:100200001010100C1E0C1E0C30383E3830060E3EFE
:100210000E06000000000000005F0000000700075D
:1002200000147F147F14242A7F2A12231308646287
:1002300036495620500008070300001C22410000E8
:1002400041221C002A1C7F1C2A08083E0808008046
:1002500070300008080808080000606000201008DE
:1002600004023E5149453E00427F400072494949DF
:10027000462141494D331814127F10274545453911
:100280003C4A494931412111090736494949364615
:100290004949291E000014000000403400000008F5
:1002A0001422411414141414004122140802015998
:1002B00009063E415D594E7C1211127C7F49494925
:1002C000363E414141227F4141413E7F49494941BA
:1002D0007F090909013E414151737F0808087F00E9
:1002E000417F41002040413F017F081422417F406F
:1002F0004040407F021C027F7F0408107F3E414146
:10030000413E7F090909063E4151215E7F091929B5
:1003100046264949493203017F01033F4040403F9F
:100320001F2040201F3F4038403F631408146303E0
:10033000047804036159494D43007F41414102045F
:10034000081020004141417F040201020440404066
:100350004040000307080020545478407F2844445C
:10036000383844444428384444287F385454541876
:1003700000087E090218A4A49C787F080404780071
:10038000447D40002040403D007F10284400004153
:100390007F40007C047804787C0804047838444466
:1003A0004438FC1824241818242418FC7C0804045D
:1003B00008485454542404043F44243C4040207CC6
:1003C0001C2040201C3C4030403C44281028444C19
:1003D0009090907C4464544C4400083641000000E6
:1003E000770000004136080002010204023C262387
:1003F000263C1EA1A161123A4040207A385454553F
:100400005921555579412254547842215554784008
:1004100020545579400C1E52721239555555593990
:100420005454545939555454580000457C410002E5
:10043000457D420001457C407D1211127DF028254A
:1004400028F07C545545002054547C547C0A097F84
:100450004932494949323A4444443A324A48483098
:100460003A4141217A3A42402078009DA0A07D3D4A
:100470004242423D3D4040403D3C24FF2424487ED2
:100480004943662B2FFC2F2BFF0929F620C0887EBD
:10049000090320545479410000447D413048484AC2
:1004A00032384040227A007A0A0A727D0D19317D75
:1004B0002629292F28262929292630484D40203849
:1004C0000808080808080808382F10C8ACBA2F1008
:1004D0002834FA00007B000008142A142222142A6F
:1004E00014085500550055AA55AA55AAFF55FF55A1
:1004F000FF000000FF00101010FF00141414FF0094
:100500001010FF00FF1010F010F0141414FC001471
:1005100014F700FF0000FF00FF1414F404FC14148F
:1005200017101F10101F101F1414141F001010108C
:10053000F0000000001F101010101F10101010F01D
:1005400010000000FF101010101010101010FF10FD
:10055000000000FF140000FF00FF00001F10170044
:1005600000FC04F414141710171414F404F400001D
:10057000FF00F714141414141414F700F7141414CF
:10058000171410101F101F141414F4141010F0106E
:10059000F000001F101F0000001F14000000FC14DA
:1005A0000000F010F01010FF10FF141414FF1410CE
:1005B00010101F00000000F010FFFFFFFFFFF0F021
:1005C000F0F0F0FFFFFF0000000000FFFF0F0F0F33
:1005D0000F0F3844443844FC4A4A4A347E0202062B
:1005E00006027E027E0263554941633844443C045E
:1005F000407E201E2006027E020299A5E7A5991CD6
:100600002A492A1C4C7201724C304A4D4D303048F8
:10061000784830BC625A463D3E494949007E010156
:10062000017E2A2A2A2A2A44445F444440514A44EB
:100630004040444A51400000FF0103E080FF0000B9
:1006400008086B6B083612362436060F090F0600B1
:100650000018180000001010003040FF0101001FBA
:1006600001011E00191D1712003C3C3C3C0000001B
:10067000000000000000240027002A00DB40A4A6A0
:100680002EAF2000A1C8D300408DAED580A80102B6
:100690000408102040800102040810200102040810
:1006A000102000000000250028002B000404040492
:1006B000040404040202020202020303030303030C
:1006C00000006000000000000000000000000000CA
:1006D00000E0000000000000000000000000000139
:1006E000E00000000000000000000000000001F039
:1006F0000000000000000000000000000003F00007
:1007000000000000000000000000000007F00000F2
:10071000000000000000000000000007F8000000DA
:10072000000000000000000000000FF800000003BF
:10073000C0007E000001E0007F0FF800000003C051
:1007400000FE000001E000FFEFF800000003C00021
:10075000FE000001E000FFFFF800000003C000F011
:100760000000000F007FFE7FC0000003C000F0000B
:1007700000000F003FFE7FF83FF1FBCFFCFEF3BC13
:100780003DEFE01FFE7FFF7FFBFFDFFEFEFFBC3D76
:10079000EFE01FC6FFFF7FFBFFDFFEFEFFBC3DEF6C
:1007A000E00FE3C7FE787BC3DE1EF0FFBC3DEF0029
:1007B00007FF87FC787BC3DE1EF0F83C3DEF0001AD
:1007C000FFFFF0007BC3C01EF0F03C3DEF0001F3E3
:1007D0007FE03FFBC3CFFEF0F03C3DEF0003E33F83
:1007E000807FFBC3DFFEF0F03C3DEF0007E73C00FD
:1007F000787BC3DE1EF0F03C3DEF0007FFBE0078C3
:100800007BC3DE1EF0F03C3DEF0007FFFE00787B6F
:10081000C3DE1EF0F03C3DEF000FFFFE007FFBFF4C
:10082000DFFEF0F03FFDEFE00FFFFF007FFBFFDF9B
:10083000FEF0F03FFDEFE00FF9FF003E79F9CF9EAB
:10084000F0F01F3DE7E01FF1FF0000000000000096
:1008500000000000001F80FF007FFFFFFFFFFFFF81
:10086000FFFFFFE01C007F007FFFFFFFFEB46D88ED
:100870008D18E000001F007FFFFFFFFE95AD7DB5E6
:1008800077E000000F007FFFFFFFFEA5AD9D8D19F3
:10089000E0000006007FFFFFFFFEB5ADEDB57EE096
:1008A00000000000000180000000000000000000C7
:1008B000038000000000000000000007C0000000EE
:1008C00000000000000007C0000000000000000061
:1008D000000FC00000000000000000001FE000004A
:1008E000000000000000001FE00000000000000009
:1008F00000003FE00000000000000000003FF000AA
:1009000000000000000000007FF000000000000078
:10091000001FF87FF0000000000000003FFE7FF0A5
:10092000000000000000003FFF7FF000000000001A
:1009300000001FFFFBE0000000000000000FFFF9B7
:10094000FFC00000000000000FFFF9FFF8000000EA
:1009500000000007FFF1FFFF00000000000003FCA3
:1009600073FFFF80000000000001FE3FFFFF8000DA
:100970000000000000FF1E0FFF000000000000004C
:100980007FFE1FFC000000000000003FFFFFF8009A
:100990000000000000000FDFFFE00000000000008A
:1009A000001F19FFC0000000000000003F3CFF00D6
:1009B000000000000000007E7CF800000000000045
:1009C00000007FFE7C0000000000000000FFFFFC34
:1009D0000000000000000000FFFFFE00000000001B
:1009E000000000FFFFFE0000000000000001FFEF1C
:1009F000FE0000000000000001FFCFFE000000002C
:100A000000000003FF07FE0000000000000003FCE0
:100A100007FE0000000000000003F003FE000000DD
:100A200000000000018000FE000000000000000047
:100A300000007E000000000000000000003E0000FA
:100A400000000000000000000C0000000000000793
:100A50008000FC000003C0000000078001FC0000D3
:100A600003C0000000078001FC000003C00000007C
:100A7000078001E00000001E000000078001E00088
:100A800000001E007FE3F79FF9FDE7787BDFC0FFE2
:100A9000F7FFBFFDFDFF787BDFC0FFF7FFBFFDFD68
:100AA000FF787BDFC0F0F787BC3DE1FF787BDE009D
:100AB000F0F787BC3DE1F0787BDE0000F787803DF2
:100AC000E1E0787BDE007FF7879FFDE1E0787BDE69
:100AD00000FFF787BFFDE1E0787BDE00F0F787BC21
:100AE0003DE1E0787BDE00F0F787BC3DE1E0787B1C
:100AF000DE00F0F787BC3DE1E0787BDE00FFF7FF2A
:100B0000BFFDE1E07FFBDFC0FFF7FFBFFDE1E07F5E
:100B1000FBDFC07CF3F39F3DE1E03E7BCFC00000F4
:100B2000000000000000000000FFFFFFFFFFFFFFCC
:100B3000FFFFFFC0FFFFFFFFFD68DB111A31C0FFA1
:100B4000FFFFFFFD2B5AFB6AEFC0FFFFFFFFFD4BCE
:100B50005B3B1A33C0FFFFFFFFFD6B5BDB6AFDC031
:100B60000000000000000000000000000000000085
:100B70000000000000000000000000000000000075
:100B80000000000000000000000000000000000065
:100B90000000000000000000000000000000000055
:100BA0000000000000000000000000000000000045
:100BB0000000000000000000000000000000000035
:100BC0000000000000000000000000000000000025
:100BD0000000000000000000000000000000000015
:100BE0000000000000000000000000000000000005
:100BF0000000001FF00000000000000000000000E6
:100C0000000000FFFE0000000000000000000000E7
:100C1000000003FFFF800000000000000000000053
:100C200000000FF39FE00000000000000000000043
:100C300000001F8383F0000000000000000000009F
:100C400000003E0100F8000000000000000000006D
:100C500000007801003C00000000000000000000DF
:100C60000000F001001E0000000000000000000075
:100C70000001E001000F0000000000000000000083
:100C80000003C00380078000000000000000000097
:100C9000000380010003800000000000000000004D
:100CA000000780010003C0000000000000000000F9
:100CB000000700010001C00000000000000000006B
:100CC000000F00010001E000000000000000000033
:100CD000000E00038000E0000000000000000000A3
:100CE000000E00010000E000000000000000000015
:100CF000001E000100007000000000000000000065
:100D0000001C000100007000000000000000000056
:100D1000001C000100007000000000000000000046
:100D2000001F08410421F000000000000000000046
:100D3000001FFFFFFFFFF0000000000000000000A8
:100D4000001F08410421F000000000000000000026
:100D5000001C000100007000000000000000000006
:100D6000001C0001000070000000000000000000F6
:100D7000001E0001000070000000000000000000E4
:100D8000000E00010000E000000000000000000074
:100D9000000E00038000E0000000000000000000E2
:100DA000000F00010000E000000000000000000053
:100DB000000700010001C00000000000000000006A
:100DC000000780010003C0000000000000000000D8
:100DD000000380010003800000000000000000000C
:100DE0000003C00380078000000000000000000036
:100DF0000001E001000F0000000000000000000002
:100E00000000F001001E00000000000000000000D3
:100E100000007801003C000000000000000000001D
:100E200000003E0100F8000000000000000000008B
:100E300000001F8381F0000000000000000000009F
:100E400000000FE38FE00000000000000000000041
:100E5000000003FFFF800000000000000000000011
:100E6000000000FFFE000000000000000000000085
:100E70000000001FF0000000000000000000000063
:100E80000000000000000000000000000000000062
:100E90000000000000000000000000000000000052
:100EA0000000000000000000000000000000000042
:100EB0000000000000000000000000000000000032
:102B6000736574757020646F6E6500427574746F60
:102B70006E3A20004655454C205241494C20505356
:102B8000493A200050524553535552495A494E47ED
:102B9000204655454C002200FF2100000000002384
:102BA00000260029000000000800020100000304C4
:102BB00007000000000000000000D532C6321124DA
:102BC0001FBECFEFD8E0DEBFCDBF11E0A0E0B1E087
:102BD000E0E3F5E702C005900D92A83FB107D9F7F1
:102BE00024E0A8EFB1E001C01D92A832B207E1F7DE
:102BF00015E1CEEDD5E104C02197FE010E944C39CC
:102C0000CD3DD107C9F70E94182B0C948B3A0C9438
:102C100000006F927F928F929F92AF92BF92CF925D
:102C2000DF92EF92FF920F931F93CF93DF93EC010C
:102C30004B015A0169013801E881F9810284F38569
:102C4000E02D0995E881F9810288F389E02D87015B
:102C50009601A501B401CE010995E881F981A5018C
:102C6000460D571D415051090288F389E02D960108
:102C7000B401CE010995E881F9810088F189E02D40
:102C80009301A501B401CE010995E881F981C80C31
:102C9000D91CB601615071090088F189E02D9301BA
:102CA000A501CE010995E881F9810688F789E02D13
:102CB000CE01DF91CF911F910F91FF90EF90DF90A8
:102CC000CF90BF90AF909F908F907F906F9009941E
:102CD000CF92DF92EF92FF920F931F93CF93DF93E8
:102CE00000D000D000D0CDB7DEB76C01DC01ED9193
:102CF000FC916217730789F4041715072CF4942FBD
:102D0000852FA801092F182F041B150B98012F5F81
:102D10003F4F048CF58DE02D12C04017510709F587
:102D2000261737072CF4962F872FB901292F382F14
:102D3000261B370B2F5F3F4F068CF78DE02D870149
:102D4000C601099526960FB6F894DEBF0FBECDBF1B
:102D5000DF91CF911F910F91FF90EF90DF90CF9077
:102D600008950284F385E02D2D833E834B835C839D
:102D700069837A830995D601ED91FC910488F589E0
:102D8000E02D2D813E814B815C8169817A81C60174
:102D90000995D601ED91FC910688F789E02DC601D1
:102DA00026960FB6F894DEBF0FBECDBFDF91CF9150
:102DB0001F910F91FF90EF90DF90CF900994EF92C9
:102DC000FF920F931F93DC01ED91FC9111971A96DE
:102DD0000D911C911B9718962D913C91199700A06D
:102DE000F1A1E02D7B0140E050E060E070E009954A
:102DF0001F910F91FF90EF9008954F925F926F9205
:102E00007F928F929F92AF92BF92CF92DF92EF927A
:102E1000FF920F931F93CF93DF9300D0CDB7DEB710
:102E20006C015A0139014801DC01ED91FC910284E9
:102E3000F385E02D69837A8309956981462E7A812D
:102E4000572E640C751CD601ED91FC914614570465
:102E50006CF40088F189E02D87019401A501B2018D
:102E6000C6010995BFEF4B1A5B0AEDCF0688F789BB
:102E7000E02DC6010F900F90DF91CF911F910F9120
:102E8000FF90EF90DF90CF90BF90AF909F908F908A
:102E90007F906F905F904F900994AF92BF92CF92C6
:102EA000DF92EF92FF920F931F93CF93DF9300D0A7
:102EB00000D0CDB7DEB75C016901DC01ED91FC917A
:102EC0000284F385E02D4B835C8369837A830995C3
:102ED000D501ED91FC9169817A819B012C0D3D1DFD
:102EE000215031090488F589E02D78014B815C81FE
:102EF0008A01C5010995D501ED91FC910688F789F4
:102F0000E02DC5010F900F900F900F90DF91CF91A2
:102F10001F910F91FF90EF90DF90CF90BF90AF90F7
:102F20000994AF92BF92CF92DF92EF92FF920F93EC
:102F30001F93CF93DF9300D000D0CDB7DEB75C01F5
:102F40006901DC01ED91FC910284F385E02D4B8356
:102F50005C8369837A830995D501ED91FC914B815E
:102F60005C81C40ED51EB1E0CB1AD1080488F58966
:102F7000E02D7801860169817A819B01C50109955F
:102F8000D501ED91FC910688F789E02DC5010F90E0
:102F90000F900F900F90DF91CF911F910F91FF90A5
:102FA000EF90DF90CF90BF90AF9009940895EF928B
:102FB000FF920F931F93DC01ED91FC9100A0F1A112
:102FC000E02D09951F910F91FF90EF9008950F93B9
:102FD0001F93DC01ED91FC91068CF78DE02D099596
:102FE0001F910F9108950F931F93DC01ED91FC91B8
:102FF000048CF58DE02D09951F910F910895DC014A
:10300000ED91FC910084F185E02D099408952F92B3
:103010003F924F925F926F927F928F929F92AF9268
:10302000BF92CF92DF92EF92FF920F931F93CF93B5
:10303000DF9300D01F92CDB7DEB74C017B836A834C
:103040006A01590117019801241B350B37FF03C092
:10305000319521953109C5014A815B81841B950B0E
:1030600097FF03C091958195910951E0598382178B
:10307000930714F019820BC09A2D8B2D5801092F3C
:10308000182F9A818B81DB82CA82C92ED82E8A8121
:103090009B81A816B9065CF49C2D8D2D6801092F23
:1030A000182F9A818B81BB82AA82A92EB82E250166
:1030B000AA81BB814A1A5B0A38016C187D0877FE29
:1030C00003C0719461947108720157FE03C0BFEF91
:1030D000EB1AFB0AF594E794C016D1061CF00FEF2B
:1030E0001FEF1FC001E010E01CC0D401ED91FC9166
:1030F000B9810484F585E02D9101BB23C1F04A819B
:103100005B81B601C4010995E618F708F7FE04C013
:10311000C00ED11EE40CF51CEA81FB813196FB83C5
:10312000EA834A815B81A416B506FCF604C0A601B9
:103130006A817B81E7CF0F900F900F90DF91CF9145
:103140001F910F91FF90EF90DF90CF90BF90AF90C5
:103150009F908F907F906F905F904F903F902F90B7
:1031600008950F931F93CF93DF9377FF04C0260F2B
:10317000371F60E070E0DC011496CD91DC9115976B
:10318000FB01E20FF31FCE17DF071CF49E01261B85
:10319000370B121613060CF046C0FA0157FD37968E
:1031A000DF01E3E0B595A795EA95E1F7AC9FF00163
:1031B000AD9FF00DBC9FF00D11246E0F7F1FDC0141
:1031C0005F96ED91FC919097E60FF71F477055279A
:1031D00081E090E001C0880F4A95EAF7482F01305E
:1031E000110539F078F002301105E9F42E0F3F1F78
:1031F00013C02E0F3F1FE217F307A9F08081842B25
:103200008193F9CF80952E0F3F1FE217F30759F0F6
:10321000908198239193F9CFE217F30721F08081F1
:1032200084278193F9CFDF91CF911F910F9108955A
:10323000EF92FF920F931F93CF93DF93EC0177FDF3
:10324000A4C0EC80FD806E157F050CF09EC057FF7A
:1032500004C0240F351F40E050E08E819F81FA01A9
:10326000E20FF31F8E179F071CF49C01241B350BE4
:10327000121613060CF089C0922F842F869586951E
:1032800086958E9DD0018F9DB00D11246A0F7B1FF6
:10329000AF8DB8A1A60FB71F4770A9F188E0841BB6
:1032A000482F682F70E0FB01E659FE4FE491281784
:1032B00090F4621B71092FEF30E002C0359527951D
:1032C0006A95E2F7E2230130110541F070F0023017
:1032D000110579F05AC00130110519F48C91E82BD1
:1032E0000AC00130110508F049C0E0958C91E8232F
:1032F00002C08C91E827EC932C813D81941708F44F
:1033000044C0A20FB31FE92FE41BE830F8F00230ED
:10331000110561F48E2F9C9190959C932C813D8199
:10332000A20FB31F88508830B0F70FC081E001159D
:10333000110509F480E081959E2F8C932C813D81AD
:10334000A20FB31F98509830C0F7E770EE23E9F052
:10335000F0E0EE59FE4FE4910130110539F048F0EC
:103360000230110591F48C91E82706C08C91E82B6E
:1033700003C0E0958C91E823EC9307C0023011055F
:1033800009F4B7CFAE0DBF1DBECFDF91CF911F9116
:103390000F91FF90EF9008950F931F93CF93DF93BA
:1033A000DC015696EC915697E23071F0E330E9F08B
:1033B000E13079F5FB0114960D90BC91A02DA41B72
:1033C000B50BA21BB30B18C0EC01EC81FD81E61B11
:1033D000F70BBF0161507109EE81FF81DF01A41B72
:1033E000B50BAD01421B530B14C0DA01EC01EE81A9
:1033F000FF81E61BF70B3197F7FD0DC0EC014E8105
:103400005F81E417F5073CF4AF01BD010E94B118DC
:1034100002C00E941819DF91CF911F910F9108955A
:103420000F931F93DC015696EC915697E23061F0B2
:10343000E33009F1E13081F51496ED91FC91159797
:10344000E41BF50B319723C0DC011496ED91FC9140
:103450001597DF01A61BB70BBD01DC011696ED9198
:10346000FC911797DF01A41BB50BAD014150510929
:10347000621B730B11C0FA01DC0116964D915C9131
:103480001797DA01A61BB70BBD01621B730BAB01CB
:10349000BF010E9418190CC057FD0AC0DC01169626
:1034A000ED91FC9117974E175F0714F40E94B11825
:1034B0001F910F910895FC0177FDB9C0808591851A
:1034C000681779070CF0B3C057FDB1C082859385AA
:1034D000481759070CF008958689823079F4848161
:1034E0009581DC01A61BB70BBD0161507109868176
:1034F0009781DC01A41BB50BAD010EC0833009F030
:1035000084C064277527CB018427952768277927EE
:1035100046815781481B590B4150510921303105D3
:1035200031F048F12230310509F44AC00895CA014A
:1035300057FD07969C01A3E035952795AA95E1F7DD
:10354000A481B5812A9FC0012B9F900D3A9F900DB9
:103550001124680F791F078CF0A1E02DE60FF71FEB
:103560004770552781E090E001C0880F4A95EAF73F
:103570009081892B48C0CA0157FD07969C0193E0B2
:10358000359527959A95E1F7A481B5812A9FC001C9
:103590002B9F900D3A9F900D1124680F791F078C77
:1035A000F0A1E02DE60FF71F4770552781E090E06E
:1035B00001C0880F4A95EAF780959081892323C03E
:1035C000CA0157FD07969C0183E0359527958A959A
:1035D000E1F7A481B5812A9FC0012B9F900D3A9FEE
:1035E000900D1124680F791F078CF0A1E02DE60FD4
:1035F000F71F4770552781E090E001C0880F4A957A
:10360000EAF79081892780830895813009F086CF79
:103610006427752746275727642775278481958156
:10362000DC01A61BB70BBD016150710977CF08956E
:1036300085ED8093BC008091BC0084FDFCCF10928E
:103640008602089540913A02262F30E0240F311D62
:1036500021323105DCF4209186022430C9F4FC01CA
:1036600080E090E0861758F430913A022191DC0115
:10367000A85EBD4FA30FB11D2C930196F3CF80918F
:103680003A02680F60933A0280E0089581E008955D
:1036900082E00895089581E090E0309188022091C1
:1036A0008702321710F480E090E09195819591099E
:1036B00008958091880290918702891730F48F5F76
:1036C0008093880280E090E008958FEF9FEF089547
:1036D0008091870290E020918802821B91090895D1
:1036E000CF92DF92EF92FF920F931F93CF93DF93CE
:1036F0007C01262F972F8A018091A402882391F0C4
:10370000C62FD72F6E01C40ED51ECC15DD0571F066
:103710006991D701ED91FC910190F081E02DC701F5
:103720000995F3CF642F822F0E94221BC801DF91DD
:10373000CF911F910F91FF90EF90DF90CF90089560
:10374000CF93DF931F92CDB7DEB769832091A40298
:103750002223D1F02091A102203240F021E030E07C
:10376000FC013383228380E090E015C08091A202A7
:10377000E82FF0E0E850FE4F998190838F5F8093AF
:10378000A2028093A10205C061E0CE0101960E94D1
:10379000221B81E090E00F90DF91CF910895089572
:1037A00080E090E008952F923F924F925F926F9247
:1037B0007F928F929F92AF92BF92CF92DF92EF92C1
:1037C000FF920F931F93CF93DF93CDB7DEB76C9724
:1037D0000FB6F894DEBF0FBECDBF9C8F8B8F1B0141
:1037E0004A01198708873701A982DC0159964D9152
:1037F0005C915A974115510509F0FFC018968D91BB
:103800009C911997681779070CF0E1C11A968D9170
:103810009C911B97881699060CF0D9C1EC2DF0E00D
:10382000FB83EA83AB0166E0C69E400D511D112467
:103830005D874C87141615060CF0C9C18A2D90E0DF
:103840009B878A8733E0880F991F3A95E1F79F8716
:103850008E87880D991D181619060CF0B8C1589658
:103860008C91811103C0203B08F02F5FAB8DBC8D84
:10387000ED91FC9111970284F385E02DCD012A8F03
:1038800009952A8DB5E02B9F90011124EC2DF0E0D5
:10389000F98BE88BA1014B5F5F4F5B8B4A8B3D82BD
:1038A0002C822101B901621973097D8B6C8B99817E
:1038B000892F90E09F8B8E8BD4011896B98FA88F9B
:1038C000EC89FD89E40DF51DEE58FE4FD4905401AE
:1038D0009F828E82D0FE16C0AB8DBC8DED91FC9187
:1038E000B1E0CB1209C02981213031F40484F5857F
:1038F000E02D2885398519C00684F785E02DE884F8
:10390000F9841DC0488559856416750619F1AB8D7B
:10391000BC8DED91FC91B1E0CB120DC0298121301D
:1039200051F40484F585E02D9301A501B2018B8D3E
:103930009C8D09950FC00684F785E02D73010A85DB
:103940001B852A813B814E815F816C817D818B8DBE
:103950009C8D0995D6943FEFA31AB30A4E815F81DF
:103960006E897F89460F571F5F834E83888D998D9F
:10397000A816B90609F0AECF9FEF491A590AAC81D3
:10398000BD81E889F989AE0FBF1FBD83AC832A8949
:103990003B894216530609F093CF48855985641632
:1039A000750609F4F2C0AB8DBC8DED91FC91B1E0D0
:1039B000CB1211C02981213071F4B1016B5F7F4FAF
:1039C0000088F189E02D830128E030E0A4018B8D8F
:1039D0009C8D0995DAC06C857D854A815B81641B6D
:1039E000750B0684F785E02D73010E851F859A01FE
:1039F000A4018B8D9C8D0995C8C0FA0134969491D1
:103A0000329765917491291BCB01B7E02B9F800DF4
:103A1000911D1124FA01259134913B8B2A8BFC01D5
:103A2000A590B490FC0132965490319634913C8725
:103A3000329614913196749041E04C1518F05981EA
:103A4000523068F0612F012E000C770B7B836A8364
:103A5000872D072C000C990B9D838C8304C01D823D
:103A60001C821B821A82AB8DBC8DED91FC9111974B
:103A70000284F385E02DCD010995412CD12C612CD8
:103A8000F981EF2FF0E0FF83EE832C2D30E03B87B0
:103A90002A87A401470D511D77FC5A955F8B4E8BE9
:103AA000B101610F711D17FD7A95798F688F5C8563
:103AB000651608F06AC0262D30E04C815D81420F0A
:103AC000531F6E817F81469FC001479F900D569F77
:103AD000900D1124DC01A80DB91DB98BA88B842D84
:103AE000712CEE89FF89E20FF31FFD8BEC8B7514AF
:103AF00008F048C071E0780F7E87877041F4C501F7
:103B00000196EA89FB89EA0DFB1DD4905C01D7FE82
:103B100035C0AB8DBC8DED91FC91B1E0CB1212C0E4
:103B20002981213079F40484F585E02D28853985B3
:103B30004C895D89688D798D670D711D8B8D9C8D8C
:103B400009951CC08A819B81870D911D4A855B85E3
:103B5000849FB001859F700D949F700D1124620D9C
:103B6000731D0684F785E02DE884F9840E811F819A
:103B70009A01488959898B8D9C8D0995DD0C739428
:103B80008E85B5CF450C639492CFAB8DBC8DED91F6
:103B9000FC9111970688F789E02DCD016C960FB640
:103BA000F894DEBF0FBECDBFDF91CF911F910F9173
:103BB000FF90EF90DF90CF90BF90AF909F908F904D
:103BC0007F906F905F904F903F902F9009946C96EC
:103BD0000FB6F894DEBF0FBECDBFDF91CF911F911E
:103BE0000F91FF90EF90DF90CF90BF90AF909F909C
:103BF0008F907F906F905F904F903F902F9008959F
:103C000008958EBD00000DB407FEFDCF8EB508955A
:103C10008CBD9DBD08951F920F920FB60F92112477
:103C20002F933F934F935F936F937F938F939F93C4
:103C3000AF93BF93EF93FF938091830287FF05C0FB
:103C400010928500109284001BC020918302022EE6
:103C5000000C330B8091AE0390E02817390784F4F1
:103C600080918302082E000C990BFC01EE0FFF1FC0
:103C70008E0F9F1FFC01E657FC4F808186FD15C00B
:103C8000809183028F5F8093830220918302022EB2
:103C9000000C330B8091AE0390E028173907C4F471
:103CA000809183028C3064F113C080918302082ECE
:103CB000000C990BFC01EE0FFF1F8E0F9F1FFC01E4
:103CC000E657FC4F808160E08F730E947928D8CF3F
:103CD0008091840090918500049680349C4918F46A
:103CE00080E49CE905C08091840090918500049651
:103CF00090938900809388008FEF809383023BC06C
:103D0000209184003091850080918302082E000C60
:103D1000990BFC01EE0FFF1F8E0F9F1FFC01E65752
:103D2000FC4F81819281820F931F90938900809331
:103D3000880080918302082E000C990BFC01EE0F85
:103D4000FF1F8E0F9F1FFC01E657FC4F808186FFEF
:103D500012C080918302082E000C990BFC01EE0F1B
:103D6000FF1F8E0F9F1FFC01E657FC4F808161E013
:103D70008F730E947928FF91EF91BF91AF919F912E
:103D80008F917F916F915F914F913F912F910F9004
:103D90000FBE0F901F9018951F920F920FB60F92A3
:103DA00011242F933F934F935F936F937F938F9340
:103DB0009F93AF93BF93EF93FF938091B900887F58
:103DC000803609F49CC068F5883209F45BC090F431
:103DD000803109F454C038F4882309F4F6C08830DF
:103DE00009F44DC0F6C0883109F44CC0803209F4A2
:103DF0005DC0EFC0803409F468C048F4803309F432
:103E000055C0883309F0E5C080935F02D8C0803583
:103E100009F44FC0883509F45DC0883409F0D9C071
:103E2000D6C0883909F4C7C0A8F4883709F467C038
:103E300038F4883609F463C0803709F460C0C9C01B
:103E4000883809F4B8C0803909F45FC0803809F0B7
:103E5000C0C05BC0803B09F486C038F4803A09F4E6
:103E600066C0883A09F47FC0B4C0803C09F4A7C09A
:103E7000883C09F4A4C0883B09F48AC0AAC0809198
:103E8000820210C09091810280918002981770F593
:103E9000E091810281E08E0F80938102F0E0E05A90
:103EA000FD4F80818093BB0085EC86C080935F02CC
:103EB0008EC0E091810281E08E0F8093810280911B
:103EC000BB00F0E0E05AFD4F808390918102809129
:103ED00080026EC0E091810281E08E0F80938102AA
:103EE0008091BB00F0E0E05AFD4F80838091850215
:103EF00081116DC081E08093840284EA61C083E017
:103F00008093860210925E02CFCF80915E02803253
:103F100008F051C0E0915E0281E08E0F80935E0256
:103F20008091BB00F0E0E25CFD4F8083BDCF85EC6B
:103F30008093BC001092860280915E02803230F441
:103F4000E0915E02F0E0E25CFD4F108260915E0263
:103F500070E0E0913C02F0913D028EE392E0099521
:103F600010925E0236C084E08093860210923B027B
:103F700010923A02E0913802F0913902099580914D
:103F80003A02811105C081E080933A021092180232
:103F9000E0913B0281E08E0F80933B02F0E0E85E0F
:103FA000FD4F80818093BB0090913B0280913A024B
:103FB000981708F479CF85E88093BC000AC085EC97
:103FC0008093BC001092860204C010925F020E948F
:103FD000181BFF91EF91BF91AF919F918F917F91AE
:103FE0006F915F914F913F912F910F900FBE0F9066
:103FF0001F9018959B01AC0160E074E284EF90E0A3
:104000000E94BF37DA01C9014097A109B109B695ED
:10401000A795979587958093B80008952091A10260
:104020009091A302213208F04AC08091860281114A
:10403000FCCF32E03093860231E0309385023FEFCF
:1040400030935F021092810220938002A8EFB1E0CA
:1040500040E652E0FA013E2F341B321718F43D912E
:104060003193F9CF1092820220918202990F922B04
:104070009093820290918402913061F410928402B4
:10408000909182029093BB009091BC0093FDF8CF79
:1040900095EC01C095EE9093BC0090918602923011
:1040A000E1F390915F029F3F79F080915F0280324F
:1040B00041F080915F02803331F084E005C081E0FF
:1040C00003C082E001C083E01092A2021092A1021C
:1040D0001092A40208951F93CF93DF93FC01858D66
:1040E000968D009729F1162FEF0121A131E0309331
:1040F000A4022093A3021092A2021092A102DC015A
:10410000ED91FC910190F081E02D60E009958D8D9D
:104110009E8DDC01ED91FC910190F081E02D612FED
:1041200009958D8D9E8DDF91CF911F910C940E205E
:10413000A5A5B6A59C9183A9809589238C93838D91
:10414000948D892B31F0862FDF91CF911F910C94A4
:10415000011E28E030E080E8A1A5B2A591A9482F72
:10416000462319F04C91942B03C04C9190959423C5
:104170009C93A3A5B4A54C9192A9942B9C93A3A521
:10418000B4A54C9192A9909594239C938695215027
:10419000310911F7DF91CF911F9108951F93CF93AC
:1041A000DF93EC01162F8D8D9E8D892B39F06FA931
:1041B00078AD89AD9AAD0E94FA1F0FC08B8D9C8D92
:1041C000892B21F08DA99EA90E94081EEFA5F8A9B0
:1041D00090818CA9809589238083111102C066EAA1
:1041E00001C067EACE010E946B208D8D9E8D892BC8
:1041F00049F06BAD7CAD8DAD9EADDF91CF911F9140
:104200000C94FA1FEFA5F8A990818CA9892B8083C3
:10421000DF91CF911F910895E5EAF2E0A089B1897D
:1042200082E08C93A485B5851C92A685B7858FEC1A
:104230008C93108EA489B58986E08C93A289B3896A
:104240008C9180618C93A289B3898C9188608C93C6
:10425000A289B3898C9180688C930288F389E02DC0
:1042600080818F7D808308950F931F93CF93DF9379
:104270008C01C0E0D0E0F801EC0FFD1F64916623D3
:1042800071F0E091A502F091A6020190F081E02D7D
:1042900085EA92E00995892B11F02196ECCFCE01A9
:1042A000DF91CF911F910F910895FF920F931F936C
:1042B000CF93DF93EC01F62E8091EC039091ED0308
:1042C000009709F451C02091F00331E03093A4022B
:1042D0002093A3021092A2021092A102DC01ED91A0
:1042E000FC910190F081E02D60E009958E01D1E014
:1042F000CF0DFF24F3948091EC039091ED03C01750
:1043000061F1D032C8F00E940E208091F003F0924B
:10431000A4028093A3021092A2021092A1028091A3
:10432000EC039091ED03DC01ED91FC910190F081A3
:10433000E02D60E00995D1E08091EC039091ED03D0
:10434000F8016491DC01ED91FC910190F081E02D88
:104350000995DF5F0F5F1F4FCECFDF91CF911F9188
:104360000F91FF900C940E20E091FC03F091FD035F
:104370002081809102048095822380838E01C60F64
:10438000C017C1F1F80184912091EA033091EB0349
:10439000232B19F00E94011E2AC028E030E040E8DB
:1043A000E091F803F091F90390910004542F582301
:1043B00019F05081952B03C05081909595239083DF
:1043C000E091FA03F091FB03508190910104952B49
:1043D0009083E091FA03F091FB03508190910104E6
:1043E000909595239083469521503109C9F60F5F2A
:1043F0001F4FC6CFDF91CF911F910F91FF9008956E
:10440000CF92DF92EF92FF920F931F93CF93DF93A0
:104410001F92CDB7DEB78091EC039091ED03892B0D
:1044200059F06091060470910704809108049091FE
:1044300009040E94FA1F16C08091EA039091EB03D1
:10444000892B31F080910404909105040E94081E8C
:10445000E091FE03F091FF03908180910304809529
:104460008923808365E086E99BE20E945521609163
:10447000D30361508FEC93E00E946B202091D50311
:104480003091D603C901079697FD079623E09595CD
:1044900087952A95E1F72091D3033091D403829F29
:1044A0008001839F100D929F100D1124E090EE0368
:1044B000F090EF038091EC039091ED030E0D1F1D22
:1044C000009709F44EC02091F00331E03093A4022C
:1044D0002093A3021092A2021092A102DC01ED919E
:1044E000FC910190F081E02D60E40995670121E0E5
:1044F000FF24F3948091EC039091ED03C016D10654
:1045000069F12032C8F00E940E208091F003F092F1
:10451000A4028093A3021092A2021092A1028091A1
:10452000EC039091ED03DC01ED91FC910190F081A1
:10453000E02D60E4099521E08091EC039091ED037A
:10454000F60161916F01DC01ED91FC910190F08128
:10455000E02D2983099529812F5FCCCF0E940E2061
:1045600043C0E091FC03F091FD039081809102042F
:10457000892B8083E016F106B9F1F70181917F0163
:104580002091EA033091EB03232B19F00E94011EC6
:10459000F1CF28E030E040E8E091F803F091F90332
:1045A00090910004542F582319F05081952B03C08B
:1045B0005081909595239083E091FA03F091FB034D
:1045C000508190910104952B9083E091FA03F09132
:1045D000FB0350819091010490959523908346951B
:1045E00021503109C9F6C6CF8091EC039091ED03BB
:1045F000892B99F060910A0470910B0480910C044E
:1046000090910D040F90DF91CF911F910F91FF902A
:10461000EF90DF90CF900C94FA1FE091FE03F091A1
:10462000FF03908180910304892B80838091EA03AA
:104630009091EB03892B59F00F90DF91CF911F914F
:104640000F91FF90EF90DF90CF900C94001E0F9091
:10465000DF91CF911F910F91FF90EF90DF90CF905E
:104660000895FC01222311F0922F01C091E0909354
:10467000E303211101C021E02093E40321E030E0B5
:104680003093E2032093E1033093E0032093DF03B0
:10469000F093DC03E093DB037093DE036093DD03B0
:1046A000BA018FEC93E00E94432A0C9400223F92BF
:1046B0004F925F926F927F928F929F92AF92BF9232
:1046C000CF92DF92EF92FF920F931F93CF93DF93DE
:1046D000CDB7DEB728970FB6F894DEBF0FBECDBFBB
:1046E0006C017E836D832A013901DC01ED91FC911F
:1046F0000284F385E02D0995C801079697FD07967A
:10470000FC0193E0F595E7959A95E1F7FA83E98343
:10471000812C912CA12CB12C312CC501840D951D1F
:104720009C838B83AE14BF040CF03FC018861F829D
:10473000EF81F885E017F10784F58F819885877000
:104740009927892B11F0330C0EC0EF81F885F7FD06
:10475000379683E0F595E7958A95E1F7E80DF91D21
:10476000E60DF71D349037FE12C0D601ED91FC9195
:104770000484F585E02D21E030E04B815C816D8182
:104780007E818F819885680F791FC6010995AF8159
:10479000B8851196B887AF83CBCFFFEFAF1ABF0AAA
:1047A00029813A81820E931EB8CFD601ED91FC91FA
:1047B0000688F789E02DC60128960FB6F894DEBF6B
:1047C0000FBECDBFDF91CF911F910F91FF90EF9062
:1047D000DF90CF90BF90AF909F908F907F906F9021
:1047E0005F904F903F9009942091D5033091D6036C
:1047F000C901079697FD079623E0959587952A9519
:10480000E1F72091D3033091D403829FA001839FCD
:10481000500D929F500D112460E070E08091EE03E6
:104820009091EF030C94843A0F931F93CF93DF93EF
:104830008B01EA01BC0183E00E94E528B80185E014
:104840000E94E528BE0186E0DF91CF911F910F9174
:104850000C94E52861E083E00E94A92861E085E0EE
:104860000E94A92861E086E00C94A928AC019091EF
:10487000CC039C3090F58091CD0328E830E0281BD4
:10488000310987FD3395220F331F220F331F421743
:10489000530784F08091CE0328E532E0281B3109CC
:1048A00087FD3395220F331F220F331F4217530703
:1048B0000CF49A0122503109220F331F4FB7F8949C
:1048C000892F90E0FC01EE0FFF1F8E0F9F1FFC0150
:1048D000E657FC4F328321834FBF0895E091A50234
:1048E000F091A6020190F081E02D682F85EA92E018
:1048F00009944F925F926F927F928F929F92AF92A4
:10490000BF92CF92DF92EF92FF926B017C019B01ED
:10491000AC010E941339882319F06BEE71E01AC0C4
:1049200046015701E894B7F82FEF3FEF4FE75FE7F5
:10493000C501B4010E941339811112C02FEF3FEF5E
:104940004FE75FE7C501B4010E949336181644F49F
:104950006FEE71E085EA92E00E94432A7C0186C0F6
:104960002FEF3FEF4FE75FE4C701B6010E940E391A
:1049700018161CF463EF71E0EDCF2FEF3FEF4FE718
:104980005FECC701B6010E94933687FDF3CF20E0AC
:1049900030E0A901C701B6010E94933687FF09C024
:1049A0008DE20E946E245C01F7FAF094F7F8F0941F
:1049B00002C0A12CB12C2AE037ED43EA5BE3C7012A
:1049C000B6010E9401382B013C010E94DF386B01C7
:1049D0007C010E9498369B01AC01C301B2010E9488
:1049E00000382B013C012AE0B701A60185EA92E0DC
:1049F0000E948F2A7C01EA0CFB1C8EE20E946E242E
:104A0000E80EF91E20E030E040E251E4C301B201BB
:104A10000E94F9362B013C010E94DF384B01A12C8A
:104A2000B12C2AE0B501A40185EA92E00E948F2A08
:104A3000E80EF91EC501B4010E9498369B01AC0135
:104A4000C301B2010E94003820E030E040E251E4AE
:104A50000E94F9360E94DF38AB0160E070E02AE086
:104A600085EA92E00E948F2AE80EF91E67E671E05F
:104A700085EA92E00E94432A8E0D9F1DFF90EF90E1
:104A8000DF90CF90BF90AF909F908F907F906F906E
:104A90005F904F9008958F929F92AF92BF92CF9266
:104AA000DF92EF92FF920F931F93A091B103B09109
:104AB000B203A090AF03B090B0036C01092E000CBC
:104AC000EE08FF084091B3035091B4036091B50321
:104AD0007091B6032091B7033091B803E091B90308
:104AE000F091BA03AA15BB0534F41196B093B20342
:104AF000A093B1030FC0D901AA0FBB1FAE0FBF1FF8
:104B00008D909C90092C000CAA08BB0848195909E3
:104B10006A097B094C0D5D1D6E1D7F1D4093B3031B
:104B20005093B4036093B5037093B603220F331F01
:104B3000E20FF31F918380838091B7039091B803B4
:104B400001969093B8038093B7032091AF033091FF
:104B5000B0038217930724F01092B8031092B703A2
:104B60002091B1033091B203C90137FD01969595AB
:104B70008795092E000CAA0BBB0B4091B3035091F3
:104B8000B4036091B5037091B6037C018D01E40E0E
:104B9000F51E061F171FC801B701032E000C440B9A
:104BA000550B0E94E137C9011F910F91FF90EF90C3
:104BB000DF90CF90BF90AF909F908F900895FC01B1
:104BC000538D448D252F30E0842F90E0821B930B72
:104BD000541710F0CF96089501970895FC01918D18
:104BE000828D981761F0828DDF01A80FB11D5D964F
:104BF0008C91928D9F5F9F73928F90E008958FEFBD
:104C00009FEF0895FC01918D828D981731F0828D70
:104C1000E80FF11D858D90E008958FEF9FEF0895C7
:104C2000FC01918D228D892F90E0805C9F4F821B2B
:104C300091098F739927089585EA92E00E941026C2
:104C400021E0892B09F420E0822F0895FC01848D56
:104C5000DF01A80FB11DA35ABF4F2C91848D90E0A6
:104C600001968F739927848FA689B7892C93A08981
:104C7000B1898C9180648C93938D848D981306C038
:104C80000288F389E02D80818F7D80830895EF92E3
:104C9000FF920F931F93CF93DF93EC0181E0888FF6
:104CA0009B8D8C8D981305C0E889F989808185FDDD
:104CB00024C0F62E0B8D10E00F5F1F4F0F731127CE
:104CC000E02E8C8DE8120CC00FB607FCFACFE889F5
:104CD000F989808185FFF5CFCE010E942626F1CF8C
:104CE0008B8DFE01E80FF11DE35AFF4FF0820B8F11
:104CF000EA89FB898081806207C0EE89FF89608331
:104D0000E889F98980818064808381E090E0DF9187
:104D1000CF911F910F91FF90EF900895CF93DF9364
:104D2000EC01888D8823C9F0EA89FB89808185FDA3
:104D300005C0A889B9898C9186FD0FC00FB607FC04
:104D4000F5CF808185FFF2CFA889B9898C9185FF45
:104D5000EDCFCE010E942626E7CFDF91CF910895B7
:104D600080E090E0892B29F00E941C2681110C9490
:104D700000000895833081F028F4813099F082306A
:104D8000A1F008958730A9F08830B9F08430D1F4CB
:104D9000809180008F7D03C0809180008F77809309
:104DA0008000089584B58F7702C084B58F7D84BD5F
:104DB00008958091B0008F7703C08091B0008F7DFF
:104DC0008093B00008953FB7F894809120049091AB
:104DD0002104A0912204B091230426B5A89B05C00C
:104DE0002F3F19F00196A11DB11D3FBFBA2FA92F6A
:104DF000982F8827820F911DA11DB11DBC01CD01E7
:104E000042E0660F771F881F991F4A95D1F70895D2
:104E10000895FC016370668B8481958126813781BA
:104E2000613039F0633029F091878087338722879A
:104E30000895318720879387828708950E947F3A5B
:104E40008F929F92AF92CF92EF92FF920F931F9308
:104E5000CF93DF93EC01262F898D9A8D009709F06F
:104E600042C06A3059F41D861C862D898E859F8527
:104E700038E0239F800D911D112443C06D3009F44B
:104E8000AAC08F898823C9F03C898C859D8546E01E
:104E9000349F800D911D1124488559854817590765
:104EA00064F41D861C863D898E859F8548E0349F6D
:104EB000800D911D11249F878E87EA88FB880889C1
:104EC00019894E855F856C857D85AD88CC88CE013E
:104ED0000E94D31B2C898C859D8536E0239F800DF5
:104EE000911D11243EC06A3079F41D861C862D89DF
:104EF000FC013696E4918E859F852E9F800D911D35
:104F000011249F878E8767C06D3009F464C0FC014F
:104F100034963491631708F45EC03196E491E61735
:104F200008F459C0462F431B342FFC01329685905C
:104F3000949047E0349F800C911C1124F401329628
:104F400034913196E491332311F0E1110DC0F40155
:104F50003496E4912C898C859D85E29F800D911D6E
:104F600011249D878C8737C0F401359644915F8961
:104F7000552319F15C89E32FF0E0E40FF11D47FDA3
:104F8000FA955E9FB0015F9F700D11244C855D8581
:104F9000460F571F688579856417750774F41D8659
:104FA0001C863D89FC013696E4918E859F853E9F47
:104FB000800D911D11249F878E87EA88FB880889C0
:104FC00019894E855F856C857D85AD88CC88CE013D
:104FD0000E94D31BBCCF81E090E0DF91CF911F9165
:104FE0000F91FF90EF90CF90AF909F908F9008958A
:104FF0001F920F920FB60F9211242F933F934F934E
:105000005F936F937F938F939F93AF93BF93EF9330
:10501000FF9385EA92E00E942626FF91EF91BF91CF
:10502000AF919F918F917F916F915F914F913F9140
:105030002F910F900FBE0F901F9018951F920F92F7
:105040000FB60F9211242F938F939F93EF93FF939B
:10505000E091B502F091B6028081E091BB02F0913F
:10506000BC0282FD12C090818091BE028F5F8F735F
:105070002091BF02821751F0E091BE02F0E0EB55A3
:10508000FD4F958F8093BE0201C08081FF91EF910B
:105090009F918F912F910F900FBE0F901F90189599
:1050A000CF93DF93282F30E0F901EB55F44D849135
:1050B000F901E257F94FD491F901E455F94FC49140
:1050C000CC2391F081110E94BA26EC2FF0E0EE0F74
:1050D000FF1FE556F44DA591B491EC91ED2381E0CD
:1050E00090E021F480E002C080E090E0DF91CF9179
:1050F00008951F93CF93DF93282F30E0F901EB55EC
:10510000F44D8491F901E257F94FD491F901E45536
:10511000F94FC491CC23C9F0162F81110E94BA26F1
:10512000EC2FF0E0EE0FFF1FEE55F94FA591B49173
:105130008FB7F894111105C09C91ED2FE095E923EC
:1051400002C0EC91ED2BEC938FBFDF91CF911F91BB
:105150000895CF93DF9390E0FC01E257F94F24913B
:10516000FC01E455F94F8491882361F190E0880FA8
:10517000991FFC01EE58F94FC591D491FC01EE55F1
:10518000F94FA591B491611109C09FB7F894888136
:10519000209582238883EC912E230BC0623061F42A
:1051A0009FB7F8943881822F809583238883EC9170
:1051B0002E2B2C939FBF06C08FB7F894E8812E2B1F
:1051C00028838FBFDF91CF9108951F93CF93DF93F3
:1051D000182FEB0161E00E94A928209711F460E0EC
:1051E00004C0CF3FD10539F461E0812FDF91CF9129
:1051F0001F910C947928E12FF0E0EB55F44DE491E8
:10520000E330F9F048F4E130B9F0E230A1F584B5CB
:10521000806284BDC8BD34C0E730E9F0E83019F1E0
:10522000E43049F580918000806280938000D093C3
:105230008B00C0938A0024C084B5806884BDC7BD3C
:105240001FC080918000806880938000D093890087
:10525000C093880015C08091B00080688093B00032
:10526000C093B3000DC08091B00080628093B00005
:10527000C093B40005C0C038D1050CF0B5CFAFCF96
:10528000DF91CF911F9108958E3008F08E50877076
:10529000806480937C0080917A00806480937A009F
:1052A00080917A0086FDFCCF809178002091790072
:1052B00090E0922B08958F929F92AF92BF92CF92DF
:1052C000DF92EF92FF926B017C010E94E3264B017B
:1052D0005C01C114D104E104F104F1F00E94E32661
:1052E000DC01CB0188199909AA09BB09883E9340C2
:1052F000A105B10570F321E0C21AD108E108F10857
:1053000088EE880E83E0981EA11CB11CC114D10444
:10531000E104F10419F7DDCFFF90EF90DF90CF901B
:10532000BF90AF909F908F9008952FB7F8946091A1
:105330001C0470911D0480911E0490911F042FBFC6
:1053400008951F920F920FB60F9211242F933F933F
:105350008F939F93AF93BF9380911C0490911D04F2
:10536000A0911E04B0911F0430911B0423E0230F71
:105370002D3720F40196A11DB11D05C026E8230F8D
:105380000296A11DB11D20931B0480931C049093D1
:105390001D04A0931E04B0931F04809120049091DB
:1053A0002104A0912204B09123040196A11DB11DF6
:1053B0008093200490932104A0932204B0932304AB
:1053C000BF91AF919F918F913F912F910F900FBE01
:1053D0000F901F901895CF92DF92EF92FF920F934C
:1053E0001F93CF93DF936C017A018B01C0E0D0E073
:1053F000CE15DF0589F0D8016D918D01D601ED91B3
:10540000FC910190F081E02DC6010995892B11F4E2
:105410007E0102C02196ECCFC701DF91CF911F9191
:105420000F91FF90EF90DF90CF900895CF93DF938F
:10543000EC010E942A24C130D10539F0C230D105D7
:1054400051F0CD2B91F461E011C060E083E00E9447
:10545000792861E00FC060E083E00E94792860E075
:1054600085E00E94792861E009C060E083E00E9445
:10547000792860E085E00E94792860E086E0DF918D
:10548000CF910C9479286115710579F0FB01019099
:105490000020E9F73197AF01461B570BDC01ED9176
:1054A000FC910280F381E02D099480E090E0089562
:1054B000CF93DF93BC0185EA92E00E94432AEC017E
:1054C00067E671E085EA92E00E94432A8C0F9D1FF7
:1054D000DF91CF910895FC01222311F0922F01C09A
:1054E00091E09093E303211101C021E02093E403B4
:1054F0001092E2031092E1031092E0031092DF0396
:10550000F093DC03E093DB037093DE036093DD0331
:10551000BA018FEC93E00E94432A0C9400224F9230
:105520005F926F927F92EF92FF920F931F93CF93B0
:10553000DF93CDB7DEB7A1970FB6F894DEBF0FBEED
:10554000CDBF7C01FA01CB0119A2223008F42AE078
:105550008E010F5D1F4F422E512C612C712CBF010B
:10556000A30192010E94BF37F901CA01015011093C
:105570006A3014F4605D01C0695CD8016C93232B20
:10558000242B252B61F7B801C7010E94432AA1965D
:105590000FB6F894DEBF0FBECDBFDF91CF911F9144
:1055A0000F91FF90EF907F906F905F904F900895D4
:1055B0000F931F93CF93DF9300D000D0CDB7DEB70A
:1055C000AC01990F660B770B77FF1BC08DE2498307
:1055D0005A836B837C830E946E248C0149815A819B
:1055E0006B817C8170956095509541955F4F6F4FB1
:1055F0007F4F2AE085EA92E00E948F2A080F191F48
:1056000006C02AE085EA92E00E948F2A8C0167E6B4
:1056100071E085EA92E00E94432A800F911F0F906B
:105620000F900F900F90DF91CF911F910F910895E0
:10563000CF93DF93CDB7DEB728970FB6F894DEBFD0
:105640000FBECDBF789484B5826084BD84B581607F
:1056500084BD85B5826085BD85B5816085BD80913D
:105660006E00816080936E001092810080918100B5
:1056700082608093810080918100816080938100AD
:10568000809180008160809380008091B10084606F
:105690008093B1008091B00081608093B0008091D0
:1056A0007A00846080937A0080917A00826080938F
:1056B0007A0080917A00816080937A0080917A00EC
:1056C000806880937A001092C10010928603109235
:1056D000870310928803109289031092440310925A
:1056E000450310924603109247030E9495296B01CF
:1056F0007C014B015C0128EB820E2BE0921EA11C69
:10570000B11C0E9495296C157D058E059F0528F01A
:1057100086169706A806B906A0F785EA92E0909348
:105720008503809384030E940C210E949529609335
:10573000440370934503809346039093470368E5C1
:1057400071E080918403909185030E94432A0E9416
:1057500095296B017C014B015C013AE0830E911CA1
:10576000A11CB11C0E9495296C157D058E059F0515
:1057700028F086169706A806B906A0F781E0809360
:1057800058030E940C2161E082E00E94A92861E098
:1057900084E00E94A92861E084E00E94792861E009
:1057A00080E10E94A92861E080E10E94792861E0FF
:1057B00081E10E94A92861E081E10E94792861E0ED
:1057C00082E10E94A92861E082E10E94792862E0DA
:1057D00087E00E94A92862E088E00E94A92860E092
:1057E0008FE00E94A92860E08EE00E94A92860E076
:1057F00083E10E94A92860E084E10E94A92860E07A
:1058000085E10E94A9280E942A248091EE039091AC
:10581000EF03892B11F52091D5033091D603C901EF
:10582000079697FD079623E0959587952A95E1F7CA
:105830002091D3033091D403AC01429FC001439F18
:10584000900D529F900D11240E9452399093EF03B6
:105850008093EE03892B09F40EC10E94F4238091FA
:10586000D5039091D6036091D3037091D403813214
:1058700091050CF468C5AC014054510957FF02C0B2
:105880004F5F5F4F559547956255710977FF02C08D
:105890006F5F7F4F7595679510E4E12EF12C02E55F
:1058A00010E020EA38E08FEC93E00E94572382E07A
:1058B0008093F1038091EC039091ED03892B09F41F
:1058C0005DC58091D5039091D603809709F454C5A6
:1058D0008DE38093F0031092880210928702109259
:1058E000A2021092A1021092860281E080938502AA
:1058F0001092840261E082E10E94792861E083E1F4
:105900000E9479288091B9008E7F8093B9008091A0
:10591000B9008D7F8093B90088E48093B80085E456
:105920008093BC008091F70387FD1EC061E00E9458
:10593000A92861E08091F7030E94792861E070E076
:1059400080E090E00E945B2960E08091F7030E9474
:1059500079286AE070E080E090E00E945B2961E0D5
:105960008091F7030E9479288091EC039091ED03D8
:10597000892B09F4C2C560910604709107048091D7
:105980000804909109040E94FA1F64E08AE896E0F6
:105990000E9455216091D50361508FEC93E00E94E5
:1059A0006B2064E086E896E00E9455218091F10327
:1059B000813009F4B9C564E18FEC93E00E946B205B
:1059C00064E082E896E00E9455218FE880930E04FF
:1059D0008091D3039091D4038038910509F0A8C534
:1059E0008091D5039091D6038034910509F0B2C51A
:1059F0008091F103813009F499C58FEC80930E04F6
:105A000012E16AED8FEC93E00E946B20612F8FEC26
:105A100093E00E946B2061E88FEC93E00E946B2082
:105A200060910E048FEC93E00E946B2069ED8FEC87
:105A300093E00E946B208091F103813009F48CC5C2
:105A400061EF8FEC93E00E946B2066E08CE796E0BC
:105A50000E9455218091EC039091ED03892B09F46C
:105A60007DC560910A0470910B0480910C049091A3
:105A70000D040E94FA1F0E94F4230E94002264E693
:105A800070E080E090E00E945B291091BB03809160
:105A9000CC038C3008F052C061E0812F0E94A9280D
:105AA000E091CC03AE2FB0E0CD01880F991FA80F75
:105AB000B91FA657BC4F1F738C91807C182B1C9369
:105AC0001092CD031092CE038E2F6CE00E941839F5
:105AD0005CE0859FB001112440E050E09A01260F60
:105AE000371FD901AA0FBB1F2A0F3B1FD901A65789
:105AF000BC4F9C9196FD16C04F5F5F4F4C305105D7
:105B000069F781110FC01092800082E080938100BC
:105B10001092850010928400B19A80916F0082608B
:105B200080936F008E2F90E0FC01EE0FFF1FE80FB7
:105B3000F91FE657FC4F8081806480838091C20307
:105B40009091C3030E9436248091BC039091BD03C1
:105B5000181619064CF08091BE039091BF031816D9
:105B6000190614F480E090E09093C1038093C00381
:105B70000E9436240E9495296D837E838F839887A7
:105B80000E9495292B013C015BEFA52EBB24BA9402
:105B900065E0862E912C7BEF272E33243A94EFE795
:105BA000CE2ED12CEE24E394F12C0EEF10E02D81BB
:105BB0003E814F815885421A530A640A750A30EDB6
:105BC000431637E0530661047104ACF50E94952931
:105BD0002B013C01B80183E00E94E528B70185E074
:105BE0000E94E528B60186E00E94E528020D131DFB
:105BF000E80CF91CCA0CDB1CC80101978E3F91050B
:105C000018F0319421943108C70101978E3F910516
:105C100018F0919481949108C60101978E3F9105E7
:105C200018F0B194A194B1086AE070E080E090E0CF
:105C30000E945B29BCCF0E942A2460E083E00E947E
:105C4000792860E085E00E94792860E086E00E9483
:105C500079284AE050E06AE070E08AE090E00E9433
:105C600014240E94F42340E4E42EF12C00E810E018
:105C700020E63BE040E050E060E070E08FEC93E035
:105C80000E9457230E94002221E030E04AE651E0C2
:105C90006CE070E081E490E00E94312321E030E08C
:105CA00041E751E069E170E081E490E00E94312336
:105CB00021E030E04AE751E066E270E081E490E004
:105CC0000E9431238E010F5F1F4F21E044E060E00E
:105CD00070E0CB010E940D3421E030E043E851E058
:105CE00068E370E08BE490E00E94312321E030E033
:105CF000A80168E370E08EE490E00E94312368EB35
:105D00007BE080E090E00E945B298091AF0390915E
:105D1000B00381384FE3940718F4880F991F02C02D
:105D20008FEF9FEF0E9452399093BA038093B9038B
:105D30008CEE97E70E94B73790E0909393028093A0
:105D4000920280E69BE20E94342167E671E085EAD8
:105D500092E00E94432A83E0C82ED12C94E0292EA1
:105D6000312C24E1A22EB12C0E94952960939B0234
:105D700070939C0280939D0290939E0269E170E073
:105D800080E090E00E945B2983E10E9444298132F7
:105D900093401CF01092900203C081E08093900227
:105DA00084E10E944429813293400CF4EAC380913B
:105DB00090028111E6C389E090E09093990280936C
:105DC00098028FE00E9444290E944B257C018EE0BE
:105DD0000E9444298C01B701FF0C880B990B0E948B
:105DE0009A362EE230E940EA5BE30E94F93620E081
:105DF00030E040E05FE30E94003823E136E64AE508
:105E00005CE30E946D382B013C0160939402709317
:105E100095028093960290939702B801110F880B18
:105E2000990B0E949A362EE230E940EA5BE30E9429
:105E3000F93620E030E040E05FE30E94003823E1E3
:105E400036E64AE55CE30E946D3860938C027093FD
:105E50008D0280938E0290938F02609192027091D6
:105E60009302072E000C880B990B0E949A369B0117
:105E7000AC01C301B2010E940E3987FD07C081E069
:105E800080939A02C301B2010E94792487E00E94A4
:105E90005028892B01F521E030E0309399022093BE
:105EA000980287E00E945028892B79F488E00E94AC
:105EB0005028892BB1F387E00E945028892B89F75D
:105EC000D0929902C0929802F1CF64E170E080E034
:105ED00090E00E945B2988E00E945028892B01F104
:105EE00042E050E0509399024093980288E00E946B
:105EF0005028892B79F088E00E945028892BB1F333
:105F000087E00E945028892B89F7D0929902C0928D
:105F10009802F1CF64E170E080E090E00E945B299C
:105F200085E10E944429853191050CF44AC02091F5
:105F30008A0230918B02DC01A21BB30B9D01B7FFDB
:105F400003C031952195310925313105D4F19C01EA
:105F50002D5231402737310520F43092990220929A
:105F600098029C01295532402E38314030F425E00A
:105F700030E030939902209398029C01255B31090F
:105F80002737310530F446E050E0509399024093B2
:105F900098029C01255A3140233B310530F4A7E09B
:105FA000B0E0B0939902A09398029C012556310964
:105FB0002F34310530F428E030E0309399022093FB
:105FC000980290938B0280938A028091980290911C
:105FD0009902892B51F08BE69BE20E94342180913B
:105FE0009802909199020E94D82A809101018823F9
:105FF00009F43FC040E050E060E070E084E690E0EB
:106000000E9414240E94F4230E94002223E030E026
:1060100045E851E06EE170E08AE090E00E943123B3
:1060200068EE73E080E090E00E945B290E94F42318
:106030000E94002280919A0221E030E04CE851E079
:106040006AE070E0811105C082E090E00E94312397
:1060500004C082E090E00E946B2A21E030E044E935
:1060600051E067E370E082E090E00E9431231092FB
:1060700001018091980290919902019709F0EEC078
:1060800080919A028111EAC021E030E04CE851E0B1
:106090006AE070E082E090E00E946B2A21E030E04C
:1060A00045EA51E06AE070E082E090E00E9431232E
:1060B00084E89BE20E94342167E671E085EA92E081
:1060C0000E94432A60E084E00E9479280E9495297A
:1060D0002B013C014B010E9495298B01E12CF12CF5
:1060E0006091920270919302072E000C880B990B1D
:1060F0000E949A369B01AC016091940270919502C6
:1061000080919602909197020E94933687FD10C06D
:1061100061E084E00E94792804191509003E1E42BE
:106120000CF44DC010929A0281E08093910252C00B
:10613000C8018819990988399A4354F78FE00E9459
:1061400044290E944B25BC01990F880B990B0E9492
:106150009A362EE230E940EA5BE30E94F93620E00D
:1061600030E040E05FE30E94003823E136E64AE594
:106170005CE30E946D386093940270939502809363
:106180009602909397020E9495298B013FEFE31AA4
:10619000F30AC701B5010E942439892B09F0A0CF69
:1061A00084E79BE20E9434216091940270919502F1
:1061B00080919602909197020E94792491CF81E07C
:1061C00080939A0240E050E064E670E080E090E066
:1061D0000E94142480919A02882309F43FC040E071
:1061E00050E064E670E080E090E00E94142421E03A
:1061F00030E045EA51E06AE070E082E090E00E9421
:106200006B2A83EB91E00E94582A60E080E10E94B3
:10621000792868E873E180E090E00E945B2961E002
:1062200080E10E94792880EC91E00E94582A82E067
:1062300090E00E94162A81E08093000110929A0259
:1062400022E030E045ED51E06EE170E08CE390E05B
:106250000E94312382E090E00E94162A80919802E9
:1062600090919902029709F06BC021E030E044E977
:1062700051E067E370E082E090E00E946B2A809139
:106280009A0290E00E94D82A80919A02882371F1A4
:1062900083EB91E00E94582A80919A02882371F042
:1062A00060E080E10E94792868E873E180E090E096
:1062B0000E945B2961E080E10E9479288BED91E0EA
:1062C0000E94582A80E090E00E94162A1092000155
:1062D00010929A0222E030E045ED51E06EE170E06C
:1062E0008CE390E00E946B2A10929A0261E082E1B6
:1062F0000E94792868EE73E080E090E00E945B29BC
:1063000060E082E10E94792821E030E04CE851E031
:106310006AE070E082E090E00E94312340E050E0CB
:1063200060E070E084E690E00E94142421E030E018
:1063300044E951E067E370E082E090E00E9431239D
:106340000E94B02611CDAC014052510957FF02C046
:106350004F5F5F4F559547956357710977FF02C0AF
:106360006F5F7F4F75956795F0E2EF2EF12C03E795
:1063700010E020EC36E097CA8CE3ABCA61E0809174
:10638000F5030E94A92861E08091F6030E94A928E4
:106390008091F503082E000C990BFC01E455F94F90
:1063A000E491F0E0EE0FFF1FEE55F94F2591349187
:1063B0003093FD032093FC03FC01E257F94FE49175
:1063C000E09302048091F603082E000C990BFC0167
:1063D000E455F94FE491F0E0EE0FFF1FEE55F94F51
:1063E000A591B491B093FF03A093FE03FC01E25783
:1063F000F94FE491E09303048C91E82BEC938091A6
:10640000EA039091EB03892B09F434C01FB7F89489
:1064100080918902811127C0E6EBF6E08491E8E9DA
:10642000F6E09491E82FF0E0EE0FFF1FEE58F94FE1
:10643000A591B491EC91E92321F461E08AE00E94F6
:10644000792861E08AE00E94A9288CB580618CBD22
:106450008CB580648CBD61E08DE00E94A92861E06C
:106460008BE00E94A928809189028F5F8093890226
:106470001FBF58CA61E08091F3030E94A92861E020
:106480008091F4030E94A9288091F303082E000C48
:10649000990BFC01E455F94FE491F0E0EE0FFF1F7A
:1064A000EE55F94F259134913093F9032093F80379
:1064B000FC01E257F94FE491E09300048091F4036A
:1064C000082E000C990BFC01E455F94FE491F0E023
:1064D000EE0FFF1FEE55F94FA591B491B093FB035A
:1064E000A093FA03FC01E257F94FE491E093010411
:1064F0008C91E095E823EC9315CA8091EA03909182
:10650000EB03892B31F080910404909105040E94E3
:10651000081EE091FE03F091FF0390818091030437
:1065200080958923808331CA60E146CA8FE966CAB3
:106530008036910579F48091D5039091D6034097E8
:1065400049F48091F103813011F08FEA01C080E1BC
:1065500080930E0412E055CA62E273CAE091FE0312
:10656000F091FF03908180910304892B80838091B7
:10657000EA039091EB03892B09F47DCA0E94001E67
:106580007ACA10929902109298021BCC80E391E093
:106590009093D0038093CF038091EE039091EF030B
:1065A000009711F00C94E73908951092A802109208
:1065B000A70288EE93E0A0E0B0E08093A902909358
:1065C000AA02A093AB02B093AC022CE031E030936E
:1065D000A6022093A50225EC30E03093B20220936E
:1065E000B10224EC30E03093B4022093B30220ECEB
:1065F00030E03093B6022093B50221EC30E03093C6
:10660000B8022093B70222EC30E03093BA02209314
:10661000B90226EC30E03093BC022093BB0210920A
:10662000BE021092BF021092C0021092C1021092DC
:1066300048031092490310924A0310924B031092A0
:106640004C0310924D0310924E0310924F03109280
:106650005003109251031092520310925303109260
:106660005403109255031092560310925703109240
:106670001204109211048093130490931404A093B5
:106680001504B09316048EE191E09093100480936A
:106690000F041092D2031092D10320E830E030931F
:1066A000D4032093D30380E490E09093D6038093A7
:1066B000D5033093D8032093D7039093DA038093C4
:1066C000D9031092E5031092DC031092DB031092C1
:1066D000DE031092DD0381E08093E4038093E30303
:1066E0002FEF3FEF3093E2032093E1033093E00379
:1066F0002093DF038093E6031092E7031092E903EF
:106700001092E80380E391E09093D0038093CF034D
:106710001092EB031092EA031092ED031092EC0337
:106720001092EF031092EE0389E08093F3038AE066
:106730008093F4038BE08093F5038CE08093F60361
:106740008DE08093F70380E58093040410920504A4
:1067500088EE93E09093C1038093C00380E49FE1AF
:10676000A0E0B0E08093C4039093C503A093C60358
:10677000B093C70384EF91E0A0E0B0E08093C8033A
:106780009093C903A093CA03B093CB038091AE0347
:106790008C30A0F491E0980F9093AE038093CC03DB
:1067A00090E0FC01EE0FFF1F8E0F9F1FFC01E657CC
:1067B000FC4F88EB9BE09283818303C08FEF809333
:1067C000CC0382E08093BB0388EE93E09093BD03FB
:1067D0008093BC0380ED97E09093BF038093BE034A
:1067E00084EF91E09093C3038093C20384E190E02F
:1067F0009093B0038093AF031092B2031092B10351
:106800001092B3031092B4031092B5031092B60322
:106810001092B8031092B7030895EF920F931F934D
:10682000CF93DF93E80147FD02C034E001C034E1BB
:10683000E42F440FFF0BF7FF03C0F195E195F10939
:10684000E32E022F2E2FAE010E942D34CE01DF91B8
:10685000CF911F910F91EF9008954F925F926F9299
:106860007F929F92AF92BF92CF92DF92EF92FF9270
:106870000F931F93CF93DF93CDB7DEB729970FB652
:10688000F894DEBF0FBECDBF6A01122FB02E2BE3EE
:10689000201720F0FF24F394F00E02C0BCE3FB2E7F
:1068A0000F2D27E0AE014F5F5F4F0E94BB35AC015B
:1068B0008981982F9970913031F0E1FC06C0E0FE9B
:1068C00006C090E205C09DE203C09BE201C090E0DB
:1068D000EE2DE07183FF3CC0911102C083E001C046
:1068E00084E0811718F4212F281B01C020E0E1115A
:1068F0000BC0F601822F30E2882319F031938150CA
:10690000FBCFC20ED11C20E0992329F0D6019C9325
:10691000F60131966F01C6010396E2FE0AC03EE41D
:10692000D6013C9341E411964C93119712963C93F7
:1069300006C03EE6F601308341E641833283FC0126
:10694000322F40E2332309F442C041933150FACF51
:1069500082FF44C0911102C083E001C084E081172E
:1069600018F4212F281B01C020E0E1110BC0F60113
:10697000822F30E2882319F031938150FBCFC20E71
:10698000D11C20E0992329F0D6019C93F601319681
:106990006F01C6010396E2FE0BC039E4D6013C93B9
:1069A0003EE411963C93119736E412963C9307C04F
:1069B00039E6F60130833EE6318336E63283FC0168
:1069C000322F40E2332319F041933150FBCFFC01C9
:1069D000E20FF11D10828EEF9FEFB7C0F1E0911131
:1069E00001C0F0E06F2F70E01416150624F49A0130
:1069F0002F5F3F4F02C021E030E0260F371FBB2042
:106A000029F06B2D70E06F5F7F4F02C060E070E097
:106A1000260F371F612F70E0261737071CF4121B53
:106A2000212F01C020E03E2D387159F4D601322FBC
:106A300060E2332319F06D933150FBCFC20ED11CAD
:106A400020E0FF2331F0D6019C93B6016F5F7F4FAA
:106A50006B01E1110BC0F601922F30E3992319F07D
:106A600031939150FBCFC20ED11C20E09F2D940F8B
:106A70003A81782F7071A72E84FF03C0313309F457
:106A80009150191624F4993018F098E001C091E063
:106A9000E42F852F57FF02C0E0E080E06E2F782FB3
:106AA000E0E0F0E0AEE29A2E3A01691A71082A019C
:106AB000461A570A0B2D10E01195019511096F3FE9
:106AC0008FEF780729F4D6019C92C60101966C01DC
:106AD0004617570784F0661677066CF47F01E40CBE
:106AE000F51CA1E0B0E0AC0FBD1FEA0EFB1ED70104
:106AF0001196BC9002C090E3B92E61507109319695
:106B0000C60101967C016017710724F0D601BC9282
:106B10006C01D5CF6417750741F4363320F4353353
:106B200021F4A11002C081E3B82EF601B082F70172
:106B3000822F90E2882319F091938150FBCFF701C7
:106B4000E20FF11D108280E090E029960FB6F894D4
:106B5000DEBF0FBECDBFDF91CF911F910F91FF9090
:106B6000EF90DF90CF90BF90AF909F907F906F900D
:106B70005F904F900895283008F027E03327DA011E
:106B8000990F311D87FD916000966105710539F4FB
:106B900032602E5F3D9330E32A95E1F708959F3FE1
:106BA00030F080387105610509F03C5F3C5F3D9332
:106BB000913008F08068911DDF93CF931F930F935E
:106BC000FF92EF92192F987F9695E92F96959695BB
:106BD000E90FFF27EE53FF4F99273327EE24FF24B9
:106BE000A701E70105900894079428F4360FE71EE3
:106BF000F81E491F511D660F771F881F991F0694A5
:106C0000A1F70590079428F4E70EF81E491F561FB8
:106C1000C11D770F881F991F661F0694A1F7059065
:106C2000079428F4F80E491F561FC71FD11D880F5F
:106C3000991F661F771F0694A1F70590079420F40B
:106C4000490F561FC71FD81F990F661F771F881F30
:106C50000694A9F784911095177041F0D695C795C1
:106C600057954795F794E7941A95C1F7E8E6F0E051
:106C700068941590159135916591959105907FE2F5
:106C80007395E118F10A430B560BC90BD009C0F7F5
:106C9000E10CF11E431F561FC91FD01D7EF4703337
:106CA00011F48A95E6CFE894015030F0080F0AF409
:106CB0000027021708F4202F2395022F7A3328F09B
:106CC00079E37D932A95E9F710C07D932A9589F69B
:106CD000069497956795379517951794E118F10ADB
:106CE000430B560BC90BD00998F023957E917395F1
:106CF0007A3308F070E37C932013B8F77E917061CB
:106D00007D9330F0839571E37D9370E32A95E1F7ED
:106D10001124EF90FF900F911F91CF91DF91992750
:106D200087FD909508950E94D53608F481E0089576
:106D3000E89409C097FB3EF4909580957095619515
:106D40007F4F8F4F9F4F9923A9F0F92F96E9BB27CB
:106D50009395F695879577956795B795F111F8CF47
:106D6000FAF4BB0F11F460FF1BC06F5F7F4F8F4FB2
:106D70009F4F16C0882311F096E911C0772321F0A8
:106D80009EE8872F762F05C0662371F096E8862F40
:106D900070E060E02AF09A95660F771F881FDAF797
:106DA000880F9695879597F90895990F0008550FC4
:106DB000AA0BE0E8FEEF16161706E807F907C0F081
:106DC00012161306E407F50798F0621B730B840B89
:106DD000950B39F40A2661F0232B242B252B21F463
:106DE00008950A2609F4A140A6958FEF811D811D03
:106DF00008950E940C370C947D370E946F3738F04D
:106E00000E94763720F0952311F00C9466370C948D
:106E10006C3711240C94B1370E948E3770F3959F14
:106E2000C1F3950F50E0551F629FF001729FBB2781
:106E3000F00DB11D639FAA27F00DB11DAA1F649F1D
:106E40006627B00DA11D661F829F2227B00DA11DD0
:106E5000621F739FB00DA11D621F839FA00D611D56
:106E6000221F749F3327A00D611D231F849F600D77
:106E7000211D822F762F6A2F11249F5750409AF0A0
:106E8000F1F088234AF0EE0FFF1FBB1F661F771F2C
:106E9000881F91505040A9F79E3F510580F00C94F7
:106EA00066370C94B1375F3FE4F3983ED4F3869590
:106EB00077956795B795F795E7959F5FC1F7FE2B97
:106EC000880F911D9695879597F9089597F99F6773
:106ED00080E870E060E008959FEF80EC0895002462
:106EE0000A941616170618060906089500240A942F
:106EF00012161306140605060895092E0394000CB5
:106F000011F4882352F0BB0F40F4BF2B11F460FF43
:106F100004C06F5F7F4F8F4F9F4F089557FD90586C
:106F2000440F551F59F05F3F71F04795880F97FB4D
:106F3000991F61F09F3F79F0879508951216130607
:106F40001406551FF2CF4695F1DF08C01616170636
:106F50001806991FF1CF869571056105089408956B
:106F6000E894BB2766277727CB0197F90895F9990D
:106F7000FECF92BD81BDF89A992780B50895A1E210
:106F80001A2EAA1BBB1BFD010DC0AA1FBB1FEE1FA3
:106F9000FF1FA217B307E407F50720F0A21BB30BEE
:106FA000E40BF50B661F771F881F991F1A9469F76A
:106FB00060957095809590959B01AC01BD01CF01C6
:106FC0000895052E97FB1EF400940E94F83757FD94
:106FD00007D00E94BF3707FC03D04EF40C94F8375B
:106FE00050954095309521953F4F4F4F5F4F0895F5
:106FF00090958095709561957F4F8F4F9F4F089525
:107000005058BB27AA270E9418380C947D370E943D
:107010006F3738F00E94763720F039F49F3F19F42B
:1070200026F40C946C370EF4E095E7FB0C9466376D
:10703000E92F0E948E3758F3BA1762077307840747
:10704000950720F079F4A6F50C94B0370EF4E0958E
:107050000B2EBA2FA02D0B01B90190010C01CA0112
:10706000A0011124FF27591B99F0593F50F4503EBD
:1070700068F11A16F040A22F232F342F4427585FAF
:10708000F3CF469537952795A795F0405395C9F7C7
:107090007EF41F16BA0B620B730B840BBAF091507F
:1070A000A1F0FF0FBB1F661F771F881FC2F70EC01E
:1070B000BA0F621F731F841F48F4879577956795F1
:1070C000B795F7959E3F08F0B0CF9395880F08F0DD
:1070D0009927EE0F9795879508950E9481380C9413
:1070E0007D370E94763758F00E946F3740F029F4C0
:1070F0005F3F29F00C94663751110C94B1370C9412
:107100006C370E948E3768F39923B1F3552391F3BE
:10711000951B550BBB27AA2762177307840738F006
:107120009F5F5F4F220F331F441FAA1FA9F335D063
:107130000E2E3AF0E0E832D091505040E695001C17
:10714000CAF72BD0FE2F29D0660F771F881FBB1FD1
:10715000261737074807AB07B0E809F0BB0B802DAF
:10716000BF01FF2793585F4F3AF09E3F510578F0DB
:107170000C9466370C94B1375F3FE4F3983ED4F338
:10718000869577956795B795F7959F5FC9F7880FAF
:10719000911D9695879597F90895E1E0660F771F01
:1071A000881FBB1F621773078407BA0720F0621B92
:1071B000730B840BBA0BEE1F88F7E09508950E94BD
:1071C000963788F09F5798F0B92F9927B751B0F0AC
:1071D000E1F0660F771F881F991F1AF0BA95C9F75B
:1071E00014C0B13091F00E94B037B1E008950C9412
:1071F000B037672F782F8827B85F39F0B93FCCF3C5
:10720000869577956795B395D9F73EF490958095D7
:10721000709561957F4F8F4F9F4F08950E94D5368F
:1072200008F48FEF08950E94D536880B990B0895C6
:10723000991B79E004C0991F961708F0961B881FC8
:107240007A95C9F78095089597FB072E16F4009458
:1072500007D077FD09D00E94383907FC05D03EF4ED
:10726000909581959F4F0895709561957F4F0895F2
:10727000AA1BBB1B51E107C0AA1FBB1FA617B7075C
:1072800010F0A61BB70B881F991F5A95A9F7809578
:107290009095BC01CD010895EE0FFF1F0590F4916C
:1072A000E02D0994CF93DF938230910510F482E0B2
:1072B00090E0E0912604F091270420E030E0C0E067
:1072C000D0E0309711F14081518148175907C0F043
:1072D0004817590761F482819381209719F09B83A5
:1072E0008A832BC0909327048093260426C02115FF
:1072F000310519F04217530718F49A01BE01DF0156
:10730000EF010280F381E02DDCCF2115310509F179
:10731000281B390B2430310590F412968D919C91E5
:1073200013976115710521F0FB019383828304C0DB
:107330009093270480932604FD01329644C0FD01FA
:10734000E20FF31F81939193225031092D933C93C7
:107350003AC02091240430912504232B41F420913C
:1073600004013091050130932504209324042091D9
:107370000201309103012115310541F42DB73EB7CB
:107380004091060150910701241B350BE091240424
:10739000F0912504E217F307A0F42E1B3F0B2817EA
:1073A000390778F0AC014E5F5F4F2417350748F07E
:1073B0004E0F5F1F509325044093240481939193B3
:1073C00002C0E0E0F0E0CF01DF91CF9108950F938C
:1073D0001F93CF93DF93009709F48CC0FC01329781
:1073E00013821282009126041091270401151105C1
:1073F00081F420813181820F931F209124043091E8
:1074000025042817390779F5F0932504E09324041F
:1074100071C0D80140E050E0AE17BF0750F412969B
:107420002D913C911397AD012115310509F1D90139
:10743000F3CF9D01DA013383228360817181860F4E
:10744000971F8217930769F4EC0128813981260F71
:10745000371F2E5F3F4F318320838A819B81938327
:107460008283452B29F4F0932704E093260442C03D
:107470001396FC93EE931297ED01499159919E0159
:10748000240F351FE217F30771F480819181840F77
:10749000951F029611969C938E93828193811396E9
:1074A0009C938E931297E0E0F0E0D80112968D91B4
:1074B0009C911397009719F0F8018C01F6CF8D91EC
:1074C0009C9198012E5F3F4F820F931F20912404BF
:1074D000309125042817390769F4309729F4109260
:1074E00027041092260402C01382128210932504EE
:1074F00000932404DF91CF911F910F91089581E0B3
:1075000090E0F8940C948B3ADC0101C06D934150EB
:107510005040E0F7089515E1CEEDD5E104C0FE013D
:107520000E944C392196CF3DD107C9F7F894FFCF7F
:107530000101000028048000000000004726EB291C
:10754000DF258E261026EE25022600000000A01B57
:10755000701BD01B4A1B681B591B4B1B00000000F3
:107560002027EB29D01BCF1B5B1A0618FF17D71754
:10757000F317E7170718D6170927CE20CC19101ACA
:10758000FD16DF1668160916564D4450565F317CBD
:10759000315F564D4450560D0A002020535055443B
:1075A0000054485255535445520039303030303031
:1075B00030300056004D414E55414C003C20204695
:1075C00055454C003C202050555247452F455848C2
:1075D00041555354004348415247494E4720465570
:1075E000454C0044554D50494E47204655454C00AA
:1075F0004348414D4245522046554C4C592041523A
:107600004D4544200041524D4544004348414D42C0
:10761000455220434C4541524544006E616E00691D
:087620006E66006F7666000043
:107800000C94343C0C94513C0C94513C0C94513CE1
:107810000C94513C0C94513C0C94513C0C94513CB4
:107820000C94513C0C94513C0C94513C0C94513CA4
:107830000C94513C0C94513C0C94513C0C94513C94
:107840000C94513C0C94513C0C94513C0C94513C84
:107850000C94513C0C94513C0C94513C0C94513C74
:107860000C94513C0C94513C11241FBECFEFD8E036
:10787000DEBFCDBF11E0A0E0B1E0ECE9FFE702C060
:1078800005900D92A230B107D9F712E0A2E0B1E065
:1078900001C01D92AD30B107E1F70E942D3D0C945F
:1078A000CC3F0C94003C982F959595959595959582
:1078B000905D8F708A307CF0282F295A8091C0000B
:1078C00085FFFCCF9093C6008091C00085FFFCCF60
:1078D0002093C6000895282F205DF0CF982F809127
:1078E000C00085FFFCCF9093C6000895EF92FF92F1
:1078F0000F931F93EE24FF2487018091C00087FD22
:1079000017C00894E11CF11C011D111D81E4E8164B
:1079100082E4F8068FE0080780E0180770F3E09132
:107920000401F091050109958091C00087FFE9CF1E
:107930008091C6001F910F91FF90EF9008950E94D3
:10794000763C982F8091C00085FFFCCF9093C600B5
