:100000000C94E6020C940E030C940E030C940E0355
:100010000C940E030C940E030C940E030C940E031C
:100020000C940E030C940E030C940E030C940E030C
:100030000C940E030C940E030C940E030C940E03FC
:100040000C94CB0F0C940E030C94990F0C94730F1B
:100050000C940E030C940E030C940E030C940E03DC
:100060000C94EE0B0C940E03000103070F1F3F7F4F
:100070000080C0E0F0F8FCFE00000000003E5B4F96
:100080005B3E3E6B4F6B3E1C3E7C3E1C183C7E3CF8
:10009000181C577D571C1C5E7F5E1C00183C180006
:1000A000FFE7C3E7FF0018241800FFE7DBE7FF3096
:1000B000483A060E2629792926407F050507407F04
:1000C00005253F5A3CE73C5A7F3E1C1C08081C1C77
:1000D0003E7F14227F22145F5F005F5F06097F016D
:1000E0007F006689956A606060606094A2FFA29458
:1000F00008047E040810207E201008082A1C080826
:100100001C2A08081E101010100C1E0C1E0C303873
:100110003E3830060E3E0E06000000000000005F74
:1001200000000007000700147F147F14242A7F2A90
:100130001223130864623649562050000807030052
:10014000001C2241000041221C002A1C7F1C2A089E
:10015000083E080800807030000808080808000001
:1001600060600020100804023E5149453E00427F75
:10017000400072494949462141494D331814127FC4
:100180001027454545393C4A494931412111090764
:100190003649494936464949291E000014000000E5
:1001A00040340000000814224114141414140041B7
:1001B00022140802015909063E415D594E7C121174
:1001C000127C7F494949363E414141227F414141AC
:1001D0003E7F494949417F090909013E4141517327
:1001E0007F0808087F00417F41002040413F017F98
:1001F000081422417F404040407F021C027F7F0460
:1002000008107F3E4141413E7F090909063E4151A8
:10021000215E7F09192946264949493203017F0198
:10022000033F4040403F1F2040201F3F4038403F99
:10023000631408146303047804036159494D4300AF
:100240007F4141410204081020004141417F0402E6
:10025000010204404040404000030708002054547D
:1002600078407F284444383844444428384444285B
:100270007F385454541800087E090218A4A49C78AE
:100280007F0804047800447D40002040403D007F0A
:100290001028440000417F40007C047804787C08EA
:1002A0000404783844444438FC18242418182424BE
:1002B00018FC7C08040408485454542404043F44A3
:1002C000243C4040207C1C2040201C3C4030403CD2
:1002D00044281028444C9090907C4464544C440032
:1002E0000836410000007700000041360800020196
:1002F0000204023C2623263C1EA1A161123A404082
:10030000207A3854545559215555794122545478FE
:1003100042215554784020545579400C1E52721297
:100320003955555559395454545939555454580020
:1003300000457C410002457D420001457C407D1224
:1003400011127DF0282528F07C5455450020545486
:100350007C547C0A097F4932494949323A44444431
:100360003A324A4848303A4141217A3A424020786C
:10037000009DA0A07D3D4242423D3D4040403D3C6D
:1003800024FF2424487E4943662B2FFC2F2BFF0992
:1003900029F620C0887E0903205454794100004486
:1003A0007D413048484A32384040227A007A0A0A71
:1003B000727D0D19317D2629292F282629292926E4
:1003C00030484D4020380808080808080808382F29
:1003D00010C8ACBA2F102834FA00007B00000814B3
:1003E0002A142222142A14085500550055AA55AA89
:1003F00055AAFF55FF55FF000000FF00101010FF29
:1004000000141414FF001010FF00FF1010F010F083
:10041000141414FC001414F700FF0000FF00FF1474
:1004200014F404FC141417101F10101F101F1414C0
:10043000141F00101010F0000000001F101010100A
:100440001F10101010F010000000FF1010101010FE
:1004500010101010FF10000000FF140000FF00FF3C
:1004600000001F10170000FC04F4141417101714D8
:1004700014F404F40000FF00F714141414141414FA
:10048000F700F7141414171410101F101F1414146D
:10049000F4141010F010F000001F101F0000001FD7
:1004A00014000000FC140000F010F01010FF10FF0A
:1004B000141414FF141010101F00000000F010FF9F
:1004C000FFFFFFFFF0F0F0F0F0FFFFFF0000000083
:1004D00000FFFF0F0F0F0F0F3844443844FC4A4A07
:1004E0004A347E02020606027E027E0263554941BC
:1004F000633844443C04407E201E2006027E0202F3
:1005000099A5E7A5991C2A492A1C4C7201724C3006
:100510004A4D4D303048784830BC625A463D3E49DD
:100520004949007E0101017E2A2A2A2A2A44445F81
:10053000444440514A444040444A51400000FF0175
:1005400003E080FF000008086B6B08361236243683
:10055000060F090F060000181800000010100030E8
:1005600040FF0101001F01011E00191D1712003C70
:100570003C3C3C000000000000000000240027007C
:100580002A0000000000250028002B0004040404B9
:10059000040404040202020202020303030303032D
:1005A000010204081020408001020408102001020A
:1005B00004081020000000080002010000030407E6
:1005C00000000000000000002410151011241FBEC0
:1005D000CFEFD4E0DEBFCDBF11E0A0E0B1E0EAE4B0
:1005E000F6E202C005900D92A436B107D9F722E0D9
:1005F000A4E6B1E001C01D92AE3EB207E1F712E001
:10060000C5EED2E004C02197FE010E94E011C43E75
:10061000D107C9F70E9496100C9418130C9400008F
:100620006F927F928F929F92AF92BF92CF92DF9202
:10063000EF92FF920F931F93CF93DF93EC014B0147
:100640005A0169013801E881F9810284F385E02DBE
:100650000995E881F9810288F389E02D87019601E7
:10066000A501B401CE010995E881F981A501460DE6
:10067000571D415051090288F389E02D9601B401BC
:10068000CE010995E881F9810088F189E02D930177
:10069000A501B401CE010995E881F981C80CD91CE6
:1006A000B601615071090088F189E02D9301A5011F
:1006B000CE010995E881F9810688F789E02DCE0100
:1006C000DF91CF911F910F91FF90EF90DF90CF902E
:1006D000BF90AF909F908F907F906F900994CF9232
:1006E000DF92EF92FF920F931F93CF93DF9300D08F
:1006F00000D000D0CDB7DEB76C01DC01ED91FC91EC
:100700006217730789F4041715072CF4942F852FAB
:10071000A801092F182F041B150B98012F5F3F4FBD
:10072000048CF58DE02D12C04017510709F52617EE
:1007300037072CF4962F872FB901292F382F261B26
:10074000370B2F5F3F4F068CF78DE02D8701C601D9
:10075000099526960FB6F894DEBF0FBECDBFDF9188
:10076000CF911F910F91FF90EF90DF90CF90089560
:100770000284F385E02D2D833E834B835C83698364
:100780007A830995D601ED91FC910488F589E02DD5
:100790002D813E814B815C8169817A81C6010995F9
:1007A000D601ED91FC910688F789E02DC6012696C9
:1007B0000FB6F894DEBF0FBECDBFDF91CF911F9172
:1007C0000F91FF90EF90DF90CF900994EF92FF92FE
:1007D0000F931F93DC01ED91FC9111971A960D91E7
:1007E0001C911B9718962D913C91199700A0F1A18F
:1007F000E02D7B0140E050E060E070E009951F9142
:100800000F91FF90EF9008954F925F926F927F92B9
:100810008F929F92AF92BF92CF92DF92EF92FF9210
:100820000F931F93CF93DF9300D0CDB7DEB76C014A
:100830005A0139014801DC01ED91FC910284F385F4
:10084000E02D69837A8309956981462E7A81572E36
:10085000640C751CD601ED91FC91461457046CF4A0
:100860000088F189E02D87019401A501B201C6013C
:100870000995BFEF4B1A5B0AEDCF0688F789E02D8B
:10088000C6010F900F90DF91CF911F910F91FF90B4
:10089000EF90DF90CF90BF90AF909F908F907F9020
:1008A0006F905F904F900994AF92BF92CF92DF927A
:1008B000EF92FF920F931F93CF93DF9300D000D05E
:1008C000CDB7DEB75C016901DC01ED91FC910284DA
:1008D000F385E02D4B835C8369837A830995D50189
:1008E000ED91FC9169817A819B012C0D3D1D215078
:1008F00031090488F589E02D78014B815C818A01FA
:10090000C5010995D501ED91FC910688F789E02D87
:10091000C5010F900F900F900F90DF91CF911F9115
:100920000F91FF90EF90DF90CF90BF90AF90099420
:10093000AF92BF92CF92DF92EF92FF920F931F93ED
:10094000CF93DF9300D000D0CDB7DEB75C01690153
:10095000DC01ED91FC910284F385E02D4B835C83F7
:1009600069837A830995D501ED91FC914B815C8176
:10097000C40ED51EB1E0CB1AD1080488F589E02D4C
:100980007801860169817A819B01C5010995D501AC
:10099000ED91FC910688F789E02DC5010F900F902D
:1009A0000F900F90DF91CF911F910F91FF90EF90DB
:1009B000DF90CF90BF90AF9009940895EF92FF928F
:1009C0000F931F93DC01ED91FC9100A0F1A1E02DAC
:1009D00009951F910F91FF90EF9008950F931F932A
:1009E000DC01ED91FC91068CF78DE02D09951F91AE
:1009F0000F9108950F931F93DC01ED91FC91048CEE
:100A0000F58DE02D09951F910F910895DC01ED9171
:100A1000FC910084F185E02D099408952F923F9276
:100A20004F925F926F927F928F929F92AF92BF92FE
:100A3000CF92DF92EF92FF920F931F93CF93DF93AA
:100A400000D01F92CDB7DEB74C017B836A836A0169
:100A5000590117019801241B350B37FF03C031954D
:100A600021953109C5014A815B81841B950B97FF54
:100A700003C091958195910951E05983821793079D
:100A800014F019820BC09A2D8B2D5801092F182FA5
:100A90009A818B81DB82CA82C92ED82E8A819B8162
:100AA000A816B9065CF49C2D8D2D6801092F182F0E
:100AB0009A818B81BB82AA82A92EB82E2501AA8198
:100AC000BB814A1A5B0A38016C187D0877FE03C0A7
:100AD000719461947108720157FE03C0BFEFEB1A65
:100AE000FB0AF594E794C016D1061CF00FEF1FEF38
:100AF0001FC001E010E01CC0D401ED91FC91B98150
:100B00000484F585E02D9101BB23C1F04A815B810E
:100B1000B601C4010995E618F708F7FE04C0C00E37
:100B2000D11EE40CF51CEA81FB813196FB83EA833C
:100B30004A815B81A416B506FCF604C0A6016A8151
:100B40007B81E7CF0F900F900F90DF91CF911F9196
:100B50000F91FF90EF90DF90CF90BF90AF909F905C
:100B60008F907F906F905F904F903F902F9008955F
:100B70000F931F93CF93DF9377FF04C0260F371F88
:100B800060E070E0DC011496CD91DC911597FB01DB
:100B9000E20FF31FCE17DF071CF49E01261B370B55
:100BA000121613060CF046C0FA0157FD3796DF0106
:100BB000E3E0B595A795EA95E1F7AC9FF001AD9F0D
:100BC000F00DBC9FF00D11246E0F7F1FDC015F96AE
:100BD000ED91FC919097E60FF71F4770552781E044
:100BE00090E001C0880F4A95EAF7482F01301105BF
:100BF00039F078F002301105E9F42E0F3F1F13C0D1
:100C00002E0F3F1FE217F307A9F08081842B8193F9
:100C1000F9CF80952E0F3F1FE217F30759F090810F
:100C200098239193F9CFE217F30721F0808184276D
:100C30008193F9CFDF91CF911F910F9108951F9369
:100C4000CF93DF93EC01162F8D8D9E8D892BB1F004
:100C50002FA938AD49AD5AAD60E074E284EF90E061
:100C60000E94BE11DA01C9014097A109B109B695E8
:100C7000A795979587958093B8000FC08B8D9C8D15
:100C8000892B21F09DA98EA99CBD8DBDEFA5F8A94A
:100C900090818CA9809589238083111102C016EA66
:100CA00001C017EA8D8D9E8D009709F470C029A1AF
:100CB00031E03093D3012093F5011092D4011092CA
:100CC000F601DC01ED91FC910190F081E02D60E0F6
:100CD00009958D8D9E8DDC01ED91FC910190F08147
:100CE000E02D612F09959091F6018091F5019132E7
:100CF00008F046C02091D2012111FCCF22E02093C0
:100D0000D20121E02093D1012FEF2093D001109246
:100D1000CF019093CE01A5EDB1E04EEA51E0FA018A
:100D20002E2F241B291718F42D912193F9CF1092FF
:100D3000AD019091AD01880F892B8093AD01809119
:100D4000AC01813061F41092AC018091AD018093CF
:100D5000BB008091BC0083FDF8CF85EC01C085EE1F
:100D60008093BC008091D2018230E1F38091D00168
:100D70008F3F31F08091D001803211F08091D0010D
:100D80001092D4011092F6011092D30133C0EDA558
:100D9000FEA590818BA98095892380838B8D9C8D66
:100DA000892B39F01EBD00000DB407FEFDCF8EB5B6
:100DB00021C028E030E090E8E9A5FAA589A9492FEB
:100DC000412319F04081842B03C040818095842306
:100DD0008083EBA5FCA540818AA9842B8083EBA5A9
:100DE000FCA540818AA98095842380839695215013
:100DF000310911F78D8D9E8D892BB1F02BAD3CAD56
:100E00004DAD5EAD60E074E284EF90E00E94BE11F3
:100E1000DA01C9014097A109B109B695A79597953F
:100E200087958093B80006C0EFA5F8A990818CA99A
:100E3000892B8083DF91CF911F910895EF92FF92CC
:100E40000F931F93CF93DF93EC0177FDA4C0EC8049
:100E5000FD806E157F050CF09EC057FF04C0240F67
:100E6000351F40E050E08E819F81FA01E20FF31FB1
:100E70008E179F071CF49C01241B350B12161306BA
:100E80000CF089C0922F842F8695869586958E9D2D
:100E9000D0018F9DB00D11246A0F7B1FAF8DB8A1BB
:100EA000A60FB71F4770A9F188E0841B482F682F51
:100EB00070E0FB01E059FF4FE491281790F4621BAA
:100EC00071092FEF30E002C0359527956A95E2F75A
:100ED000E2230130110541F070F00230110579F084
:100EE0005AC00130110519F48C91E82B0AC0013069
:100EF000110508F049C0E0958C91E82302C08C915F
:100F0000E827EC932C813D81941708F444C0A20F8C
:100F1000B31FE92FE41BE830F8F00230110561F44B
:100F20008E2F9C9190959C932C813D81A20FB31F95
:100F300088508830B0F70FC081E00115110509F421
:100F400080E081959E2F8C932C813D81A20FB31F51
:100F500098509830C0F7E770EE23E9F0F0E0E859D8
:100F6000FF4FE4910130110539F048F002301105CE
:100F700091F48C91E82706C08C91E82B03C0E09592
:100F80008C91E823EC9307C00230110509F4B7CF28
:100F9000AE0DBF1DBECFDF91CF911F910F91FF907E
:100FA000EF9008950F931F93CF93DF93DC01569634
:100FB000EC915697E23071F0E330E9F0E13079F5E9
:100FC000FB0114960D90BC91A02DA41BB50BA21B88
:100FD000B30B18C0EC01EC81FD81E61BF70BBF01E0
:100FE00061507109EE81FF81DF01A41BB50BAD01DA
:100FF000421B530B14C0DA01EC01EE81FF81E61BAA
:10100000F70B3197F7FD0DC0EC014E815F81E417BE
:10101000F5073CF4AF01BD010E94B80502C00E9473
:101020001E07DF91CF911F910F9108950F931F938A
:10103000DC015696EC915697E23061F0E33009F10D
:10104000E13081F51496ED91FC911597E41BF50BB9
:10105000319723C0DC011496ED91FC911597DF01C7
:10106000A61BB70BBD01DC011696ED91FC911797FD
:10107000DF01A41BB50BAD0141505109621B730B7D
:1010800011C0FA01DC0116964D915C911797DA01B7
:10109000A61BB70BBD01621B730BAB01BF010E9406
:1010A0001E070CC057FD0AC0DC011696ED91FC919D
:1010B00017974E175F0714F40E94B8051F910F9100
:1010C0000895FC0177FDB9C080859185681779077F
:1010D0000CF0B3C057FDB1C08285938548175907FE
:1010E0000CF008958689823079F484819581DC0141
:1010F000A61BB70BBD016150710986819781DC0188
:10110000A41BB50BAD010EC0833009F084C0642769
:101110007527CB0184279527682779274681578132
:10112000481B590B415051092130310531F048F12C
:101130002230310509F44AC00895CA0157FD0796C7
:101140009C01A3E035952795AA95E1F7A481B58187
:101150002A9FC0012B9F900D3A9F900D1124680F7C
:10116000791F078CF0A1E02DE60FF71F4770552778
:1011700081E090E001C0880F4A95EAF79081892BC1
:1011800048C0CA0157FD07969C0193E03595279505
:101190009A95E1F7A481B5812A9FC0012B9F900DFC
:1011A0003A9F900D1124680F791F078CF0A1E02D54
:1011B000E60FF71F4770552781E090E001C0880FC8
:1011C0004A95EAF780959081892323C0CA0157FD8B
:1011D00007969C0183E0359527958A95E1F7A481D0
:1011E000B5812A9FC0012B9F900D3A9F900D11242D
:1011F000680F791F078CF0A1E02DE60FF71F4770ED
:10120000552781E090E001C0880F4A95EAF7908168
:10121000892780830895813009F086CF6427752758
:10122000462757276427752784819581DC01A61BF3
:10123000B70BBD016150710977CF089585ED80939B
:10124000BC008091BC0084FDFCCF1092D2010895B7
:1012500040918701262F30E0240F311D21323105C6
:10126000DCF42091D2012430C9F4FC0180E090E04C
:10127000861758F4309187012191DC01AB59BE4F9C
:10128000A30FB11D2C930196F3CF80918701680FB6
:101290006093870180E0089581E0089582E00895D9
:1012A00008958FEF9FEF08958FEF9FEF089580913E
:1012B000640190E09195819591090895CF92DF9214
:1012C000EF92FF920F931F93CF93DF937C01262F12
:1012D000972F8A018091D301882391F0C62FD72FB1
:1012E0006E01C40ED51ECC15DD0571F06991D701D4
:1012F000ED91FC910190F081E02DC7010995F3CFAC
:10130000642F822F0E942809C801DF91CF911F917D
:101310000F91FF90EF90DF90CF900895CF93DF93E0
:101320001F92CDB7DEB769832091D3012223D1F07C
:101330002091F601203240F021E030E0FC013383BF
:10134000228380E090E015C08091D401E82FF0E086
:10135000EB52FE4F998190838F5F8093D4018093ED
:10136000F60105C061E0CE0101960E94280981E0E6
:1013700090E00F90DF91CF910895089580E090E084
:1013800008952F923F924F925F926F927F928F9229
:101390009F92AF92BF92CF92DF92EF92FF920F9304
:1013A0001F93CF93DF93CDB7DEB76C970FB6F8944A
:1013B000DEBF0FBECDBF9C8F8B8F1B014A011987EB
:1013C00008873701A982DC0159964D915C915A97A3
:1013D0004115510509F0FFC018968D919C91199700
:1013E000681779070CF0E1C11A968D919C911B97B3
:1013F000881699060CF0D9C1EC2DF0E0FB83EA8346
:10140000AB0166E0C69E400D511D11245D874C87DF
:10141000141615060CF0C9C18A2D90E09B878A87A7
:1014200033E0880F991F3A95E1F79F878E87880DE3
:10143000991D181619060CF0B8C158968C91811197
:1014400003C0203B08F02F5FAB8DBC8DED91FC916C
:1014500011970284F385E02DCD012A8F09952A8DFD
:10146000B5E02B9F90011124EC2DF0E0F98BE88B77
:10147000A1014B5F5F4F5B8B4A8B3D822C82210128
:10148000B901621973097D8B6C8B9981892F90E06A
:101490009F8B8E8BD4011896B98FA88FEC89FD890C
:1014A000E40DF51DE858FF4FD49054019F828E82C1
:1014B000D0FE16C0AB8DBC8DED91FC91B1E0CB128E
:1014C00009C02981213031F40484F585E02D288577
:1014D000398519C00684F785E02DE884F9841DC09C
:1014E000488559856416750619F1AB8DBC8DED9153
:1014F000FC91B1E0CB120DC02981213051F404845C
:10150000F585E02D9301A501B2018B8D9C8D099588
:101510000FC00684F785E02D73010A851B852A819B
:101520003B814E815F816C817D818B8D9C8D099586
:10153000D6943FEFA31AB30A4E815F816E897F89EB
:10154000460F571F5F834E83888D998DA816B90665
:1015500009F0AECF9FEF491A590AAC81BD81E889E5
:10156000F989AE0FBF1FBD83AC832A893B89421620
:10157000530609F093CF488559856416750609F41A
:10158000F2C0AB8DBC8DED91FC91B1E0CB1211C0DE
:101590002981213071F4B1016B5F7F4F0088F1899F
:1015A000E02D830128E030E0A4018B8D9C8D09950E
:1015B000DAC06C857D854A815B81641B750B06846E
:1015C000F785E02D73010E851F859A01A4018B8D8F
:1015D0009C8D0995C8C0FA01349694913297659113
:1015E0007491291BCB01B7E02B9F800D911D112415
:1015F000FA01259134913B8B2A8BFC01A590B49084
:10160000FC0132965490319634913C873296149175
:101610003196749041E04C1518F05981523068F0C1
:10162000612F012E000C770B7B836A83872D072C9B
:10163000000C990B9D838C8304C01D821C821B822D
:101640001A82AB8DBC8DED91FC9111970284F385CC
:10165000E02DCD010995412CD12C612CF981EF2F82
:10166000F0E0FF83EE832C2D30E03B872A87A40136
:10167000470D511D77FC5A955F8B4E8BB101610F61
:10168000711D17FD7A95798F688F5C85651608F056
:101690006AC0262D30E04C815D81420F531F6E8160
:1016A0007F81469FC001479F900D569F900D11244A
:1016B000DC01A80DB91DB98BA88B842D712CEE8986
:1016C000FF89E20FF31FFD8BEC8B751408F048C007
:1016D00071E0780F7E87877041F4C5010196EA8931
:1016E000FB89EA0DFB1DD4905C01D7FE35C0AB8DA4
:1016F000BC8DED91FC91B1E0CB1212C0298121305B
:1017000079F40484F585E02D288539854C895D8937
:10171000688D798D670D711D8B8D9C8D09951CC011
:101720008A819B81870D911D4A855B85849FB001CD
:10173000859F700D949F700D1124620D731D06849A
:10174000F785E02DE884F9840E811F819A0148898C
:1017500059898B8D9C8D0995DD0C73948E85B5CF41
:10176000450C639492CFAB8DBC8DED91FC9111979C
:101770000688F789E02DCD016C960FB6F894DEBF90
:101780000FBECDBFDF91CF911F910F91FF90EF90D2
:10179000DF90CF90BF90AF909F908F907F906F9091
:1017A0005F904F903F902F9009946C960FB6F894ED
:1017B000DEBF0FBECDBFDF91CF911F910F91FF9084
:1017C000EF90DF90CF90BF90AF909F908F907F90E1
:1017D0006F905F904F903F902F9008951F920F92BF
:1017E0000FB60F9211242F933F934F935F936F93F4
:1017F0007F938F939F93AF93BF93EF93FF938091CA
:10180000B900887F803609F49CC068F5883209F4F5
:101810005BC090F4803109F454C038F4882309F493
:10182000F6C0883009F44DC0F6C0883109F44CC0C8
:10183000803209F45DC0EFC0803409F468C048F418
:10184000803309F455C0883309F0E5C08093D00196
:10185000D8C0803509F44FC0883509F45DC088349C
:1018600009F0D9C0D6C0883909F4C7C0A8F48837B0
:1018700009F467C038F4883609F463C0803709F486
:1018800060C0C9C0883809F4B8C0803909F45FC0A5
:10189000803809F0C0C05BC0803B09F486C038F4D2
:1018A000803A09F466C0883A09F47FC0B4C0803C2D
:1018B00009F4A7C0883C09F4A4C0883B09F48AC095
:1018C000AAC08091AD0110C09091CF018091CE014E
:1018D000981770F5E091CF0181E08E0F8093CF01D2
:1018E000F0E0E255FE4F80818093BB0085EC86C01E
:1018F0008093D0018EC0E091CF0181E08E0F809364
:10190000CF018091BB00F0E0E255FE4F80839091C3
:10191000CF018091CE016EC0E091CF0181E08E0FAA
:101920008093CF018091BB00F0E0E255FE4F8083B1
:101930008091D10181116DC081E08093AC0184EA76
:1019400061C083E08093D2011092AB01CFCF809130
:10195000AB01803208F051C0E091AB0181E08E0F05
:101960008093AB018091BB00F0E0E557FE4F808390
:10197000BDCF85EC8093BC001092D2018091AB0169
:10198000803230F4E091AB01F0E0E557FE4F108279
:101990006091AB0170E0E0918901F0918A018BE8E0
:1019A00091E009951092AB0136C084E08093D2019A
:1019B0001092880110928701E0918501F0918601D3
:1019C000099580918701811105C081E0809387018D
:1019D00010926501E091880181E08E0F809388016B
:1019E000F0E0EB59FE4F80818093BB00909188011D
:1019F00080918701981708F479CF85E88093BC001F
:101A00000AC085EC8093BC001092D20104C01092F1
:101A1000D0010E941E09FF91EF91BF91AF919F915C
:101A20008F917F916F915F914F913F912F910F9087
:101A30000FBE0F901F901895CF92DF92EF92FF92FA
:101A40000F931F93CF93DF936C017A018B01C0E05A
:101A5000D0E0CE15DF0589F0D8016D918D01D6015A
:101A6000ED91FC910190F081E02DC6010995892B43
:101A700011F47E0102C02196ECCFC701DF91CF9116
:101A80001F910F91FF90EF90DF90CF900895FC0190
:101A9000538D448D252F30E0842F90E0821B930BD3
:101AA000541710F0CF96089501970895FC01918D79
:101AB000828D981761F0828DDF01A80FB11D5D96B0
:101AC0008C91928D9F5F9F73928F90E008958FEF1E
:101AD0009FEF0895FC01918D828D981731F0828DD2
:101AE000E80FF11D858D90E008958FEF9FEF089529
:101AF000FC01918D228D892F90E0805C9F4F821B8D
:101B000091098F739927089581E492E00E94780DDE
:101B100021E0892B09F420E0822F0895FC01848DB7
:101B2000DF01A80FB11DA35ABF4F2C91848D90E007
:101B300001968F739927848FA689B7892C93A089E2
:101B4000B1898C9180648C93938D848D981306C099
:101B50000288F389E02D80818F7D80830895EF9244
:101B6000FF920F931F93CF93DF93EC0181E0888F57
:101B70009B8D8C8D981305C0E889F989808185FD3E
:101B800024C0F62E0B8D10E00F5F1F4F0F7311272F
:101B9000E02E8C8DE8120CC00FB607FCFACFE88956
:101BA000F989808185FFF5CFCE010E948E0DF1CF9E
:101BB0008B8DFE01E80FF11DE35AFF4FF0820B8F72
:101BC000EA89FB898081806207C0EE89FF89608392
:101BD000E889F98980818064808381E090E0DF91E9
:101BE000CF911F910F91FF90EF900895CF93DF93C6
:101BF000EC01888D8823C9F0EA89FB89808185FD05
:101C000005C0A889B9898C9186FD0FC00FB607FC65
:101C1000F5CF808185FFF2CFA889B9898C9185FFA6
:101C2000EDCFCE010E948E0DE7CFDF91CF910895C9
:101C300080E090E0892B29F00E94840D81110C94A2
:101C400000000895CF93DF9390E0FC01E056FA4F37
:101C50002491FC01E457FA4F8491882361F190E0CC
:101C6000880F991FFC01E858FA4FC591D491FC01E7
:101C7000EE57FA4FA591B491611109C09FB7F8943E
:101C80008881209582238883EC912E230BC06230BB
:101C900061F49FB7F8943881822F809583238883DD
:101CA000EC912E2B2C939FBF06C08FB7F894E88140
:101CB0002E2B28838FBFDF91CF9108953FB7F894E3
:101CC00080913C0290913D02A0913E02B0913F0272
:101CD00026B5A89B05C02F3F19F00196A11DB11D87
:101CE0003FBFBA2FA92F982F8827820F911DA11DC2
:101CF000B11DBC01CD0142E0660F771F881F991FFF
:101D00004A95D1F708950895FC016370668B84812C
:101D1000958126813781613039F0633029F09187D0
:101D2000808733872287089531872087938782872A
:101D300008950E9413138F929F92AF92CF92EF92C9
:101D4000FF920F931F93CF93DF93EC01262F898D82
:101D50009A8D009709F042C06A3059F41D861C869E
:101D60002D898E859F8538E0239F800D911D11243C
:101D700043C06D3009F4AAC08F898823C9F03C891B
:101D80008C859D8546E0349F800D911D11244885EA
:101D900059854817590764F41D861C863D898E8530
:101DA0009F8548E0349F800D911D11249F878E8769
:101DB000EA88FB88088919894E855F856C857D8551
:101DC000AD88CC88CE010E94C1092C898C859D8567
:101DD00036E0239F800D911D11243EC06A3079F4B6
:101DE0001D861C862D89FC013696E4918E859F8583
:101DF0002E9F800D911D11249F878E8767C06D30A7
:101E000009F464C0FC0134963491631708F45EC091
:101E10003196E491E61708F459C0462F431B342F3E
:101E2000FC0132968590949047E0349F800C911C81
:101E30001124F401329634913196E491332311F058
:101E4000E1110DC0F4013496E4912C898C859D85B7
:101E5000E29F800D911D11249D878C8737C0F4016E
:101E6000359644915F89552319F15C89E32FF0E0A1
:101E7000E40FF11D47FDFA955E9FB0015F9F700D65
:101E800011244C855D85460F571F68857985641739
:101E9000750774F41D861C863D89FC013696E49115
:101EA0008E859F853E9F800D911D11249F878E8773
:101EB000EA88FB88088919894E855F856C857D8550
:101EC000AD88CC88CE010E94C109BCCF81E090E0F2
:101ED000DF91CF911F910F91FF90EF90CF90AF9036
:101EE0009F908F9008951F920F920FB60F9211241A
:101EF0002F933F934F935F936F937F938F939F9312
:101F0000AF93BF93EF93FF9381E492E00E948E0D15
:101F1000FF91EF91BF91AF919F918F917F916F91C1
:101F20005F914F913F912F910F900FBE0F901F9097
:101F300018951F920F920FB60F9211242F938F9323
:101F40009F93EF93FF93E0915102F09152028081B1
:101F5000E0915702F091580282FD12C09081809169
:101F60005A028F5F8F7320915B02821751F0E091CC
:101F70005A02F0E0EF5BFD4F958F80935A0201C04B
:101F80008081FF91EF919F918F912F910F900FBEC4
:101F90000F901F9018951F920F920FB60F92112459
:101FA0002F933F938F939F93AF93BF93809138026A
:101FB00090913902A0913A02B0913B0230913702E0
:101FC00023E0230F2D3720F40196A11DB11D05C07C
:101FD00026E8230F0296A11DB11D2093370280939E
:101FE000380290933902A0933A02B0933B02809159
:101FF0003C0290913D02A0913E02B0913F020196B9
:10200000A11DB11D80933C0290933D02A0933E021E
:10201000B0933F02BF91AF919F918F913F912F91CC
:102020000F900FBE0F901F9018958EE291E0909345
:10203000F8018093F70180911602909117020097A2
:1020400011F00C947B120895E1E4F2E01382128205
:1020500088EE93E0A0E0B0E084839583A683B78305
:102060002AE031E03183208325EC30E03587248776
:1020700024EC30E03787268720EC30E0318B208B52
:1020800021EC30E0338B228B22EC30E0358B248B3B
:1020900026EC30E0378B268B118E128E138E148E29
:1020A000EEEDF2E01382128284839583A683B783D8
:1020B0008CE191E091838083E7EFF1E0138212825B
:1020C00020E830E03583248380E490E097838683A2
:1020D0003187208793878287168A1586148617860C
:1020E000168681E0858B848B2FEF3FEF338B228B1D
:1020F000318B208B878B108E128E118E8EE291E0A9
:1021000091838083148E138E168E158E10A2178ED7
:1021100089E084A38AE085A38BE086A38CE087A373
:102120008DE080A780E585AB16AA0895789484B5E4
:10213000826084BD84B5816084BD85B5826085BDC3
:1021400085B5816085BD80916E00816080936E0051
:102150001092810080918100826080938100809143
:1021600081008160809381008091800081608093F4
:1021700080008091B10084608093B1008091B000B4
:1021800081608093B00080917A00846080937A00AF
:1021900080917A00826080937A0080917A008160D9
:1021A00080937A0080917A00806880937A00109200
:1021B000C100E0915102F091520282E08083E091EF
:1021C0004D02F0914E021082E0914F02F0915002C8
:1021D0008FEC808310925902E0915502F0915602E3
:1021E00086E08083E0915302F09154028081806107
:1021F0008083E0915302F091540280818860808353
:10220000E0915302F0915402808180688083E091D4
:102210005302F091540280818F7D8083109240029E
:1022200061E080E00E94220E61E082E00E94220EC6
:1022300061E083E00E94220E61E084E00E94220EB1
:1022400061E085E00E94220E61E086E00E94220E9D
:1022500062E087E00E94220E62E088E00E94220E87
:1022600060E08EE00E94220E60E08FE00E94220E6D
:1022700060E083E10E94220E60E084E10E94220E71
:1022800060E085E10E94220EE6EBF5E08491E2EA4F
:10229000F5E09491EEE8F5E0E491EE23B1F18823C6
:1022A00039F1833091F038F48130A9F0823001F5B2
:1022B00084B58F7D12C0873091F08830A1F08430D2
:1022C000B9F4809180008F7D03C0809180008F776A
:1022D000809380000DC084B58F7784BD09C0809144
:1022E000B0008F7703C08091B0008F7D8093B000E5
:1022F000F0E0EE0FFF1FEE57FA4FA591B4918FB7A4
:10230000F894EC919E2B9C938FBF4AE050E066E5D9
:1023100071E081E492E00E941C0D42E050E061E631
:1023200071E081E492E00E941C0D0E945E0E4B0160
:102330005C018AE0C82ED12CE12CF12C0E945E0EAB
:10234000DC01CB0188199909AA09BB09883E934091
:10235000A105B10558F021E0C21AD108E108F10841
:1023600088EE880E83E0981EA11CB11CC114D10414
:10237000E104F10419F70E94180ED7CFA1E21A2E3A
:10238000AA1BBB1BFD010DC0AA1FBB1FEE1FFF1F19
:10239000A217B307E407F50720F0A21BB30BE40B69
:1023A000F50B661F771F881F991F1A9469F76095B0
:1023B0007095809590959B01AC01BD01CF0108956A
:1023C000EE0FFF1F0590F491E02D0994CF93DF935A
:1023D0008230910510F482E090E0E091EC02F091FF
:1023E000ED0220E030E0C0E0D0E0309711F1408114
:1023F000518148175907C0F04817590761F4828185
:102400009381209719F09B838A832BC09093ED02D0
:102410008093EC0226C02115310519F042175307AD
:1024200018F49A01BE01DF01EF010280F381E02D73
:10243000DCCF2115310509F1281B390B243031057A
:1024400090F412968D919C9113976115710521F06E
:10245000FB019383828304C09093ED028093EC028E
:10246000FD01329644C0FD01E20FF31F8193919369
:10247000225031092D933C933AC02091EA023091C9
:10248000EB02232B41F420910201309103013093A0
:10249000EB022093EA022091000130910101211505
:1024A000310541F42DB73EB740910401509105012B
:1024B000241B350BE091EA02F091EB02E217F307DF
:1024C000A0F42E1B3F0B2817390778F0AC014E5FA4
:1024D0005F4F2417350748F04E0F5F1F5093EB02F4
:1024E0004093EA028193919302C0E0E0F0E0CF01D3
:1024F000DF91CF9108950F931F93CF93DF930097B0
:1025000009F48CC0FC013297138212820091EC0214
:102510001091ED020115110581F420813181820FA6
:10252000931F2091EA023091EB022817390779F5C1
:10253000F093EB02E093EA0271C0D80140E050E072
:10254000AE17BF0750F412962D913C911397AD0131
:102550002115310509F1D901F3CF9D01DA0133834A
:10256000228360817181860F971F8217930769F418
:10257000EC0128813981260F371F2E5F3F4F3183B1
:1025800020838A819B8193838283452B29F4F09356
:10259000ED02E093EC0242C01396FC93EE93129787
:1025A000ED01499159919E01240F351FE217F30760
:1025B00071F480819181840F951F029611969C93EE
:1025C0008E938281938113969C938E931297E0E071
:1025D000F0E0D80112968D919C911397009719F015
:1025E000F8018C01F6CF8D919C9198012E5F3F4FA1
:1025F000820F931F2091EA023091EB0228173907CE
:1026000069F4309729F41092ED021092EC0202C0A6
:10261000138212821093EB020093EA02DF91CF91B2
:102620001F910F91089581E090E0F8940C94181395
:1026300012E0C5EED2E004C0FE010E94E011219636
:0A264000C63ED107C9F7F894FFCF9A
:10264A000000EE02800000000000AF0D1C0D470DD7
:10265A00F60D780D560D6A0D000000008E095E0910
:10266A00BE095009570954095109000000009B0E80
:10267A001C0DBE09BD0961080D050605DE04FA0434
:10268A00EE040E05DD04840E1F06D20716080404A4
:10269A00E6036F031003736574757020646F6E65CB
:0426AA00000D0A0015
:103800000C94341C0C94511C0C94511C0C94511CA1
:103810000C94511C0C94511C0C94511C0C94511C74
:103820000C94511C0C94511C0C94511C0C94511C64
:103830000C94511C0C94511C0C94511C0C94511C54
:103840000C94511C0C94511C0C94511C0C94511C44
:103850000C94511C0C94511C0C94511C0C94511C34
:103860000C94511C0C94511C11241FBECFEFD4E0BA
:10387000DEBFCDBF11E0A0E0B1E0E4EAFFE302C0AB
:1038800005900D92A230B107D9F712E0A2E0B1E0A5
:1038900001C01D92AD30B107E1F70E94361D0C94B6
:1038A000D01F0C94001C982F9595959595959595FE
:1038B000905D8F708A307CF0282F295A8091C0004B
:1038C00085FFFCCF9093C6008091C00085FFFCCFA0
:1038D0002093C6000895282F205DF0CF982F809167
:1038E000C00085FFFCCF9093C6000895EF92FF9231
:1038F0000F931F93EE24FF2487018091C00087FD62
:1039000017C00894E11CF11C011D111D81E4E8168B
:1039100082E4F8068FE0080780E0180770F3E09172
:103920000401F091050109958091C00087FFE9CF5E
:103930008091C6001F910F91FF90EF9008950E9413
:10394000761C982F8091C00085FFFCCF9093C60015
:1039500091362CF490330CF09053892F089597559D
:10396000892F08951F930E949F1C182F0E949F1C4F
:103970001295107F810F1F910895882351F0982F81
:1039800091508091C00087FFFCCF8091C6009923A1
:10399000B9F708951F93182F0E94761C803249F0C2
:1039A000809103018F5F809303018530C1F01F91E7
:1039B00008958091C00085FFFCCF84E18093C6000C
:1039C0008091C00085FFFCCF1093C6008091C0009D
:1039D00085FFFCCF80E18093C6001F910895E091A0
:1039E0000401F091050109951F9108950E94761C2C
:1039F000803241F0809103018F5F80930301853015
:103A000081F008958091C00085FFFCCF84E1809310
:103A1000C6008091C00085FFFCCF80E18093C60086
:103A20000895E0910401F09105010995089510921F
:103A30000A028823D1F090E040E951E02D9A28EE67
:103A400033E0FA013197F1F721503040D1F72D984A
:103A500028EE33E0FA013197F1F721503040D1F7E9
:103A60009F5F981758F380930A0208953F924F92F0
:103A70005F926F927F928F929F92AF92BF92CF92FE
:103A8000DF92EF92FF920F931F93CF93DF9300008B
:103A900083E38093C4001092C50088E18093C10045
:103AA00086E08093C2005098589A259A81E00E943F
:103AB000171D44E1F42E3EE1E32E24E9D22E96E0D8
:103AC000C92E80E1B82EAA24A39401E4902E16E515
:103AD000812EB2E57B2EA0E26A2EF9E45F2EE3E5AB
:103AE0004E2E70E5372E0E94761C8033B1F1813363
:103AF00009F441C0803409F479C0813409F48CC0E0
:103B0000823471F1853409F47BC0803531F182351E
:103B100021F1813511F1853509F48DC0863509F41F
:103B20009DC0843609F4AEC0843709F41BC18537C3
:103B300009F485C1863709F47AC0809103018F5F4B
:103B400080930301853079F6E0910401F09105013D
:103B500009950E94761C803351F60E94F61CC3CF53
:103B600093E18091C00087FFFCCF8091C60099232C
:103B7000A1F39150F6CF0E94761C8032F1F680912D
:103B8000C00085FFFCCFF092C6008091C00085FF89
:103B9000FCCF9092C6008091C00085FFFCCF809240
:103BA000C6008091C00085FFFCCF7092C600809156
:103BB000C00085FFFCCF6092C6008091C00085FFE9
:103BC000FCCF5092C6008091C00085FFFCCF409290
:103BD000C6008091C00085FFFCCF3092C600809166
:103BE000C00085FFFCCFB092C6007DCF0E94761C3E
:103BF000863808F4B2CF0E94761C0E94F61C73CF60
:103C000094E08091C00087FFFCCF8091C60099238B
:103C100009F4A3CF9150F5CF0E94761C8038D1F0E3
:103C2000813861F1823809F499C0883979F080E0EF
:103C30000E94CA1C58CF0E94761C809306010E94E5
:103C4000761C809307010E94F61C4DCF83E00E94F2
:103C5000CA1C49CF82E00E94CA1C45CF0E94761C34
:103C6000803309F486C192E08091C00087FFFCCFC9
:103C70008091C6009923D9F29150F6CF81E00E943D
:103C8000CA1C31CF0E94761C809309020E94761CC8
:103C90008093080280910C028E7F80930C020E9418
:103CA000761C853429F480910C02816080930C028B
:103CB0008091080290910902892B89F000E010E0C0
:103CC0000E94761CF801E85FFE4F80830F5F1F4F54
:103CD00080910802909109020817190788F30E9441
:103CE000761C803209F029CF80910C0280FFD1C070
:103CF0004091060150910701440F551F5093070151
:103D000040930601A0910802B09109021097C9F0F2
:103D1000E8E0F1E09A01BD016E0F7F1FF999FECF37
:103D200032BD21BD819180BDFA9AF99A2F5F3F4F34
:103D3000E617F70799F74A0F5B1F50930701409367
:103D400006018091C00085FFFCCFF092C6008091F3
:103D5000C00085FFFCCFB092C600C5CE80E10E94B6
:103D6000CA1CC1CE0E94761C809309020E94761C58
:103D7000809308028091060190910701880F991F96
:103D800090930701809306010E94761C853409F404
:103D90007AC080910C028E7F80930C020E94761C68
:103DA000803209F0A0CE8091C00085FFFCCFF09258
:103DB000C600A0910802B09109021097B9F1809154
:103DC0000C02182F1170082F0270E0910601F0917B
:103DD00007019F012F5F3F4FB90140E050E01123E1
:103DE000B1F4002339F494918091C00085FFFCCF99
:103DF0009093C6004F5F5F4FCB010196F9014A17C0
:103E00005B0780F4BC012F5F3F4F112351F3F999F9
:103E1000FECFF2BDE1BDF89A90B58091C00085FF5C
:103E2000FCCFE6CF70930701609306018091C0003C
:103E300085FDD9CE8091C00085FFF8CFD4CE0E94F9
:103E4000761C803209F079CE8091C00085FFFCCFCE
:103E5000F092C6008091C00085FFFCCFE092C600C2
:103E60008091C00085FFFCCFD092C6008091C00039
:103E700085FFFCCFC092C6008091C00085FFFCCFBB
:103E8000B092C60030CE80910C02816080930C020B
:103E900085CF809107018823880F880B8A21809322
:103EA0000B028091060190910701880F991F909352
:103EB0000701809306018091080280FF09C080916C
:103EC00008029091090201969093090280930802DA
:103ED000F894F999FECF1127E0910601F0910701BE
:103EE000C8E0D1E08091080290910902103091F46D
:103EF0000091570001700130D9F303E0009357009F
:103F0000E8950091570001700130D9F301E1009369
:103F10005700E89509901990009157000170013001
:103F2000D9F301E000935700E8951395103498F009
:103F300011270091570001700130D9F305E000937B
:103F40005700E8950091570001700130D9F301E165
:103F500000935700E8953296029709F0C7CF1030CA
:103F600011F00296E5CF11248091C00085FFE9CEC3
:103F7000ECCE0E94761C0E94761C182F0E94761CA4
:103F8000112351F0113021F086E00E94CA1CABCD04
:103F900084E90E94CA1CA7CD8EE10E94CA1CA3CD51
:043FA000F894FFCFC3
:023FA40080009B
:0400000300003800C1
:00000001FF